{
  "contractName": "ColoredMoney",
  "abi": [
    {
      "inputs": [],
      "stateMutability": "nonpayable",
      "type": "constructor"
    },
    {
      "anonymous": false,
      "inputs": [
        {
          "indexed": true,
          "internalType": "address",
          "name": "account",
          "type": "address"
        },
        {
          "indexed": true,
          "internalType": "address",
          "name": "operator",
          "type": "address"
        },
        {
          "indexed": false,
          "internalType": "bool",
          "name": "approved",
          "type": "bool"
        }
      ],
      "name": "ApprovalForAll",
      "type": "event"
    },
    {
      "anonymous": false,
      "inputs": [
        {
          "indexed": true,
          "internalType": "address",
          "name": "previousOwner",
          "type": "address"
        },
        {
          "indexed": true,
          "internalType": "address",
          "name": "newOwner",
          "type": "address"
        }
      ],
      "name": "OwnershipTransferred",
      "type": "event"
    },
    {
      "anonymous": false,
      "inputs": [
        {
          "indexed": true,
          "internalType": "bytes32",
          "name": "role",
          "type": "bytes32"
        },
        {
          "indexed": true,
          "internalType": "bytes32",
          "name": "previousAdminRole",
          "type": "bytes32"
        },
        {
          "indexed": true,
          "internalType": "bytes32",
          "name": "newAdminRole",
          "type": "bytes32"
        }
      ],
      "name": "RoleAdminChanged",
      "type": "event"
    },
    {
      "anonymous": false,
      "inputs": [
        {
          "indexed": true,
          "internalType": "bytes32",
          "name": "role",
          "type": "bytes32"
        },
        {
          "indexed": true,
          "internalType": "address",
          "name": "account",
          "type": "address"
        },
        {
          "indexed": true,
          "internalType": "address",
          "name": "sender",
          "type": "address"
        }
      ],
      "name": "RoleGranted",
      "type": "event"
    },
    {
      "anonymous": false,
      "inputs": [
        {
          "indexed": true,
          "internalType": "bytes32",
          "name": "role",
          "type": "bytes32"
        },
        {
          "indexed": true,
          "internalType": "address",
          "name": "account",
          "type": "address"
        },
        {
          "indexed": true,
          "internalType": "address",
          "name": "sender",
          "type": "address"
        }
      ],
      "name": "RoleRevoked",
      "type": "event"
    },
    {
      "anonymous": false,
      "inputs": [
        {
          "indexed": true,
          "internalType": "address",
          "name": "operator",
          "type": "address"
        },
        {
          "indexed": true,
          "internalType": "address",
          "name": "from",
          "type": "address"
        },
        {
          "indexed": true,
          "internalType": "address",
          "name": "to",
          "type": "address"
        },
        {
          "indexed": false,
          "internalType": "uint256[]",
          "name": "ids",
          "type": "uint256[]"
        },
        {
          "indexed": false,
          "internalType": "uint256[]",
          "name": "values",
          "type": "uint256[]"
        }
      ],
      "name": "TransferBatch",
      "type": "event"
    },
    {
      "anonymous": false,
      "inputs": [
        {
          "indexed": true,
          "internalType": "address",
          "name": "operator",
          "type": "address"
        },
        {
          "indexed": true,
          "internalType": "address",
          "name": "from",
          "type": "address"
        },
        {
          "indexed": true,
          "internalType": "address",
          "name": "to",
          "type": "address"
        },
        {
          "indexed": false,
          "internalType": "uint256",
          "name": "id",
          "type": "uint256"
        },
        {
          "indexed": false,
          "internalType": "uint256",
          "name": "value",
          "type": "uint256"
        }
      ],
      "name": "TransferSingle",
      "type": "event"
    },
    {
      "anonymous": false,
      "inputs": [
        {
          "indexed": false,
          "internalType": "string",
          "name": "value",
          "type": "string"
        },
        {
          "indexed": true,
          "internalType": "uint256",
          "name": "id",
          "type": "uint256"
        }
      ],
      "name": "URI",
      "type": "event"
    },
    {
      "inputs": [],
      "name": "DEFAULT_ADMIN_ROLE",
      "outputs": [
        {
          "internalType": "bytes32",
          "name": "",
          "type": "bytes32"
        }
      ],
      "stateMutability": "view",
      "type": "function"
    },
    {
      "inputs": [],
      "name": "ENTITY_MANAGER",
      "outputs": [
        {
          "internalType": "bytes32",
          "name": "",
          "type": "bytes32"
        }
      ],
      "stateMutability": "view",
      "type": "function"
    },
    {
      "inputs": [],
      "name": "REGULATOR",
      "outputs": [
        {
          "internalType": "bytes32",
          "name": "",
          "type": "bytes32"
        }
      ],
      "stateMutability": "view",
      "type": "function"
    },
    {
      "inputs": [
        {
          "internalType": "address",
          "name": "account",
          "type": "address"
        },
        {
          "internalType": "uint256",
          "name": "id",
          "type": "uint256"
        }
      ],
      "name": "balanceOf",
      "outputs": [
        {
          "internalType": "uint256",
          "name": "",
          "type": "uint256"
        }
      ],
      "stateMutability": "view",
      "type": "function"
    },
    {
      "inputs": [
        {
          "internalType": "address[]",
          "name": "accounts",
          "type": "address[]"
        },
        {
          "internalType": "uint256[]",
          "name": "ids",
          "type": "uint256[]"
        }
      ],
      "name": "balanceOfBatch",
      "outputs": [
        {
          "internalType": "uint256[]",
          "name": "",
          "type": "uint256[]"
        }
      ],
      "stateMutability": "view",
      "type": "function"
    },
    {
      "inputs": [
        {
          "internalType": "uint256",
          "name": "id",
          "type": "uint256"
        }
      ],
      "name": "exists",
      "outputs": [
        {
          "internalType": "bool",
          "name": "",
          "type": "bool"
        }
      ],
      "stateMutability": "view",
      "type": "function"
    },
    {
      "inputs": [
        {
          "internalType": "bytes32",
          "name": "role",
          "type": "bytes32"
        }
      ],
      "name": "getRoleAdmin",
      "outputs": [
        {
          "internalType": "bytes32",
          "name": "",
          "type": "bytes32"
        }
      ],
      "stateMutability": "view",
      "type": "function"
    },
    {
      "inputs": [
        {
          "internalType": "bytes32",
          "name": "role",
          "type": "bytes32"
        },
        {
          "internalType": "uint256",
          "name": "index",
          "type": "uint256"
        }
      ],
      "name": "getRoleMember",
      "outputs": [
        {
          "internalType": "address",
          "name": "",
          "type": "address"
        }
      ],
      "stateMutability": "view",
      "type": "function"
    },
    {
      "inputs": [
        {
          "internalType": "bytes32",
          "name": "role",
          "type": "bytes32"
        }
      ],
      "name": "getRoleMemberCount",
      "outputs": [
        {
          "internalType": "uint256",
          "name": "",
          "type": "uint256"
        }
      ],
      "stateMutability": "view",
      "type": "function"
    },
    {
      "inputs": [
        {
          "internalType": "bytes32",
          "name": "role",
          "type": "bytes32"
        },
        {
          "internalType": "address",
          "name": "account",
          "type": "address"
        }
      ],
      "name": "grantRole",
      "outputs": [],
      "stateMutability": "nonpayable",
      "type": "function"
    },
    {
      "inputs": [
        {
          "internalType": "bytes32",
          "name": "role",
          "type": "bytes32"
        },
        {
          "internalType": "address",
          "name": "account",
          "type": "address"
        }
      ],
      "name": "hasRole",
      "outputs": [
        {
          "internalType": "bool",
          "name": "",
          "type": "bool"
        }
      ],
      "stateMutability": "view",
      "type": "function"
    },
    {
      "inputs": [
        {
          "internalType": "address",
          "name": "account",
          "type": "address"
        },
        {
          "internalType": "address",
          "name": "operator",
          "type": "address"
        }
      ],
      "name": "isApprovedForAll",
      "outputs": [
        {
          "internalType": "bool",
          "name": "",
          "type": "bool"
        }
      ],
      "stateMutability": "view",
      "type": "function"
    },
    {
      "inputs": [],
      "name": "owner",
      "outputs": [
        {
          "internalType": "address",
          "name": "",
          "type": "address"
        }
      ],
      "stateMutability": "view",
      "type": "function"
    },
    {
      "inputs": [],
      "name": "renounceOwnership",
      "outputs": [],
      "stateMutability": "nonpayable",
      "type": "function"
    },
    {
      "inputs": [
        {
          "internalType": "bytes32",
          "name": "role",
          "type": "bytes32"
        },
        {
          "internalType": "address",
          "name": "account",
          "type": "address"
        }
      ],
      "name": "renounceRole",
      "outputs": [],
      "stateMutability": "nonpayable",
      "type": "function"
    },
    {
      "inputs": [
        {
          "internalType": "bytes32",
          "name": "role",
          "type": "bytes32"
        },
        {
          "internalType": "address",
          "name": "account",
          "type": "address"
        }
      ],
      "name": "revokeRole",
      "outputs": [],
      "stateMutability": "nonpayable",
      "type": "function"
    },
    {
      "inputs": [
        {
          "internalType": "address",
          "name": "from",
          "type": "address"
        },
        {
          "internalType": "address",
          "name": "to",
          "type": "address"
        },
        {
          "internalType": "uint256[]",
          "name": "ids",
          "type": "uint256[]"
        },
        {
          "internalType": "uint256[]",
          "name": "amounts",
          "type": "uint256[]"
        },
        {
          "internalType": "bytes",
          "name": "data",
          "type": "bytes"
        }
      ],
      "name": "safeBatchTransferFrom",
      "outputs": [],
      "stateMutability": "nonpayable",
      "type": "function"
    },
    {
      "inputs": [
        {
          "internalType": "address",
          "name": "from",
          "type": "address"
        },
        {
          "internalType": "address",
          "name": "to",
          "type": "address"
        },
        {
          "internalType": "uint256",
          "name": "id",
          "type": "uint256"
        },
        {
          "internalType": "uint256",
          "name": "amount",
          "type": "uint256"
        },
        {
          "internalType": "bytes",
          "name": "data",
          "type": "bytes"
        }
      ],
      "name": "safeTransferFrom",
      "outputs": [],
      "stateMutability": "nonpayable",
      "type": "function"
    },
    {
      "inputs": [
        {
          "internalType": "address",
          "name": "operator",
          "type": "address"
        },
        {
          "internalType": "bool",
          "name": "approved",
          "type": "bool"
        }
      ],
      "name": "setApprovalForAll",
      "outputs": [],
      "stateMutability": "nonpayable",
      "type": "function"
    },
    {
      "inputs": [
        {
          "internalType": "uint256",
          "name": "id",
          "type": "uint256"
        }
      ],
      "name": "totalSupply",
      "outputs": [
        {
          "internalType": "uint256",
          "name": "",
          "type": "uint256"
        }
      ],
      "stateMutability": "view",
      "type": "function"
    },
    {
      "inputs": [
        {
          "internalType": "address",
          "name": "newOwner",
          "type": "address"
        }
      ],
      "name": "transferOwnership",
      "outputs": [],
      "stateMutability": "nonpayable",
      "type": "function"
    },
    {
      "inputs": [
        {
          "internalType": "address",
          "name": "_to",
          "type": "address"
        },
        {
          "internalType": "uint16",
          "name": "entityId",
          "type": "uint16"
        },
        {
          "internalType": "uint256",
          "name": "amount",
          "type": "uint256"
        }
      ],
      "name": "mint",
      "outputs": [],
      "stateMutability": "nonpayable",
      "type": "function"
    },
    {
      "inputs": [
        {
          "internalType": "address",
          "name": "from",
          "type": "address"
        },
        {
          "internalType": "uint16",
          "name": "entityId",
          "type": "uint16"
        },
        {
          "internalType": "uint256",
          "name": "amount",
          "type": "uint256"
        }
      ],
      "name": "burn",
      "outputs": [],
      "stateMutability": "nonpayable",
      "type": "function"
    },
    {
      "inputs": [
        {
          "internalType": "address",
          "name": "_owner",
          "type": "address"
        }
      ],
      "name": "consolidatedBalanceOf",
      "outputs": [
        {
          "internalType": "uint256",
          "name": "",
          "type": "uint256"
        }
      ],
      "stateMutability": "view",
      "type": "function"
    },
    {
      "inputs": [
        {
          "internalType": "address",
          "name": "_to",
          "type": "address"
        },
        {
          "internalType": "uint256",
          "name": "_value",
          "type": "uint256"
        },
        {
          "internalType": "bytes",
          "name": "_data",
          "type": "bytes"
        }
      ],
      "name": "consolidatedTransfer",
      "outputs": [],
      "stateMutability": "nonpayable",
      "type": "function"
    },
    {
      "inputs": [
        {
          "internalType": "string",
          "name": "name",
          "type": "string"
        },
        {
          "internalType": "address",
          "name": "wallet",
          "type": "address"
        }
      ],
      "name": "addEntity",
      "outputs": [],
      "stateMutability": "nonpayable",
      "type": "function"
    },
    {
      "inputs": [],
      "name": "getEntities",
      "outputs": [
        {
          "components": [
            {
              "internalType": "string",
              "name": "entityName",
              "type": "string"
            },
            {
              "internalType": "address",
              "name": "entityAddress",
              "type": "address"
            }
          ],
          "internalType": "struct ColoredMoney.Entity[]",
          "name": "",
          "type": "tuple[]"
        }
      ],
      "stateMutability": "view",
      "type": "function"
    },
    {
      "inputs": [
        {
          "internalType": "uint256",
          "name": "entityId",
          "type": "uint256"
        }
      ],
      "name": "uri",
      "outputs": [
        {
          "internalType": "string",
          "name": "",
          "type": "string"
        }
      ],
      "stateMutability": "view",
      "type": "function"
    },
    {
      "inputs": [
        {
          "internalType": "bytes4",
          "name": "interfaceId",
          "type": "bytes4"
        }
      ],
      "name": "supportsInterface",
      "outputs": [
        {
          "internalType": "bool",
          "name": "",
          "type": "bool"
        }
      ],
      "stateMutability": "view",
      "type": "function"
    },
    {
      "inputs": [
        {
          "internalType": "address",
          "name": "_from",
          "type": "address"
        }
      ],
      "name": "getTokensByOwner",
      "outputs": [
        {
          "internalType": "uint256[]",
          "name": "tokens",
          "type": "uint256[]"
        },
        {
          "internalType": "uint256[]",
          "name": "balances",
          "type": "uint256[]"
        }
      ],
      "stateMutability": "view",
      "type": "function"
    }
  ],
  "bytecode": "0x60806040526000600660146101000a81548160ff0219169083151502179055503480156200002c57600080fd5b5060405180606001604052806031815260200162006061603191396200005881620000e460201b60201c565b50620000796200006d6200010060201b60201c565b6200010860201b60201c565b6200009d6000801b620000916200010060201b60201c565b620001ce60201b60201c565b620000de7fc7f57f62334013485e4f38a5db80299ddabc789b55dfd5de50aa0e793a992db8620000d26200010060201b60201c565b620001ce60201b60201c565b62000573565b8060029080519060200190620000fc9291906200045e565b5050565b600033905090565b6000600660009054906101000a900473ffffffffffffffffffffffffffffffffffffffff16905081600660006101000a81548173ffffffffffffffffffffffffffffffffffffffff021916908373ffffffffffffffffffffffffffffffffffffffff1602179055508173ffffffffffffffffffffffffffffffffffffffff168173ffffffffffffffffffffffffffffffffffffffff167f8be0079c531659141344cd1fd0a4f28419497f9722a3daafe3b4186f6b6457e060405160405180910390a35050565b620001e08282620001e460201b60201c565b5050565b620001fb82826200022c60201b620018e21760201c565b6200022781600560008581526020019081526020016000206200031e60201b620019c31790919060201c565b505050565b6200023e82826200035660201b60201c565b6200031a5760016004600084815260200190815260200160002060000160008373ffffffffffffffffffffffffffffffffffffffff1673ffffffffffffffffffffffffffffffffffffffff16815260200190815260200160002060006101000a81548160ff021916908315150217905550620002bf6200010060201b60201c565b73ffffffffffffffffffffffffffffffffffffffff168173ffffffffffffffffffffffffffffffffffffffff16837f2f8788117e7eff1d82e926ec794901d17c78024a50270940304540a733656f0d60405160405180910390a45b5050565b60006200034e836000018373ffffffffffffffffffffffffffffffffffffffff1660001b620003c160201b60201c565b905092915050565b60006004600084815260200190815260200160002060000160008373ffffffffffffffffffffffffffffffffffffffff1673ffffffffffffffffffffffffffffffffffffffff16815260200190815260200160002060009054906101000a900460ff16905092915050565b6000620003d583836200043b60201b60201c565b6200043057826000018290806001815401808255809150506001900390600052602060002001600090919091909150558260000180549050836001016000848152602001908152602001600020819055506001905062000435565b600090505b92915050565b600080836001016000848152602001908152602001600020541415905092915050565b8280546200046c906200050e565b90600052602060002090601f016020900481019282620004905760008555620004dc565b82601f10620004ab57805160ff1916838001178555620004dc565b82800160010185558215620004dc579182015b82811115620004db578251825591602001919060010190620004be565b5b509050620004eb9190620004ef565b5090565b5b808211156200050a576000816000905550600101620004f0565b5090565b600060028204905060018216806200052757607f821691505b602082108114156200053e576200053d62000544565b5b50919050565b7f4e487b7100000000000000000000000000000000000000000000000000000000600052602260045260246000fd5b615ade80620005836000396000f3fe608060405234801561001057600080fd5b50600436106101d95760003560e01c80638dc436b611610104578063c4db3fc0116100a2578063d874e0a511610071578063d874e0a51461058b578063e985e9c5146105bb578063f242432a146105eb578063f2fde38b14610607576101d9565b8063c4db3fc014610507578063ca15c87314610523578063cfb0fd0914610553578063d547741f1461056f576101d9565b8063a217fddf116100de578063a217fddf14610481578063a22cb4651461049f578063b7fb6bd5146104bb578063bd85b039146104d7576101d9565b80638dc436b6146104035780639010d07c1461042157806391d1485414610451576101d9565b80632f2ff15d1161017c5780634e1273f41161014b5780634e1273f41461037b5780634f558e79146103ab578063715018a6146103db5780638da5cb5b146103e5576101d9565b80632f2ff15d146102f457806331b933b91461031057806336568abe1461032e57806340398d671461034a576101d9565b806311a8d209116101b857806311a8d2091461026e578063244e8d671461028a578063248a9ca3146102a85780632eb2c2d6146102d8576101d9565b8062fdd58e146101de57806301ffc9a71461020e5780630e89341c1461023e575b600080fd5b6101f860048036038101906101f39190613f26565b610623565b6040516102059190614c8b565b60405180910390f35b610228600480360381019061022391906140ff565b6106ec565b6040516102359190614973565b60405180910390f35b610258600480360381019061025391906141b5565b6106fe565b60405161026591906149a9565b60405180910390f35b61028860048036038101906102839190613ed3565b61072f565b005b610292610926565b60405161029f919061498e565b60405180910390f35b6102c260048036038101906102bd9190614052565b61094a565b6040516102cf919061498e565b60405180910390f35b6102f260048036038101906102ed9190613d2d565b61096a565b005b61030e6004803603810190610309919061407f565b610a0b565b005b610318610a34565b60405161032591906148f8565b60405180910390f35b6103486004803603810190610343919061407f565b610b7b565b005b610364600480360381019061035f9190613cc0565b610bfe565b60405161037292919061493c565b60405180910390f35b61039560048036038101906103909190613fda565b610d54565b6040516103a2919061491a565b60405180910390f35b6103c560048036038101906103c091906141b5565b610e6d565b6040516103d29190614973565b60405180910390f35b6103e3610e81565b005b6103ed610f09565b6040516103fa919061481b565b60405180910390f35b61040b610f33565b604051610418919061498e565b60405180910390f35b61043b600480360381019061043691906140bf565b610f57565b604051610448919061481b565b60405180910390f35b61046b6004803603810190610466919061407f565b610f86565b6040516104789190614973565b60405180910390f35b610489610ff1565b604051610496919061498e565b60405180910390f35b6104b960048036038101906104b49190613e93565b610ff8565b005b6104d560048036038101906104d09190614159565b61100e565b005b6104f160048036038101906104ec91906141b5565b611121565b6040516104fe9190614c8b565b60405180910390f35b610521600480360381019061051c9190613ed3565b61113e565b005b61053d60048036038101906105389190614052565b6112f5565b60405161054a9190614c8b565b60405180910390f35b61056d60048036038101906105689190613f66565b611319565b005b6105896004803603810190610584919061407f565b611626565b005b6105a560048036038101906105a09190613cc0565b61164f565b6040516105b29190614c8b565b60405180910390f35b6105d560048036038101906105d09190613ced565b6116b5565b6040516105e29190614973565b60405180910390f35b61060560048036038101906106009190613dfc565b611749565b005b610621600480360381019061061c9190613cc0565b6117ea565b005b60008073ffffffffffffffffffffffffffffffffffffffff168373ffffffffffffffffffffffffffffffffffffffff161415610694576040517f08c379a000000000000000000000000000000000000000000000000000000000815260040161068b90614a2b565b60405180910390fd5b60008083815260200190815260200160002060008473ffffffffffffffffffffffffffffffffffffffff1673ffffffffffffffffffffffffffffffffffffffff16815260200190815260200160002054905092915050565b60006106f7826119f3565b9050919050565b606061070982611a6d565b60405160200161071991906147bf565b6040516020818303038152906040529050919050565b816007805490508161ffff161061077b576040517f08c379a000000000000000000000000000000000000000000000000000000000815260040161077290614b8b565b60405180910390fd5b610783611bce565b73ffffffffffffffffffffffffffffffffffffffff1660078261ffff16815481106107b1576107b0615245565b5b906000526020600020906002020160010160009054906101000a900473ffffffffffffffffffffffffffffffffffffffff1673ffffffffffffffffffffffffffffffffffffffff16148061083257506108317f3c801090d1d22d8d8fe9837ef6d8ab50dfdff14e17d0039e333d4d7138ed50b361082c611bce565b610f86565b5b610871576040517f08c379a000000000000000000000000000000000000000000000000000000000815260040161086890614bcb565b60405180910390fd5b600660149054906101000a900460ff16156108c1576040517f08c379a00000000000000000000000000000000000000000000000000000000081526004016108b890614aab565b60405180910390fd5b816108d0858561ffff16610623565b1015610911576040517f08c379a000000000000000000000000000000000000000000000000000000000815260040161090890614b0b565b60405180910390fd5b610920848461ffff1684611bd6565b50505050565b7fc7f57f62334013485e4f38a5db80299ddabc789b55dfd5de50aa0e793a992db881565b600060046000838152602001908152602001600020600101549050919050565b610972611bce565b73ffffffffffffffffffffffffffffffffffffffff168573ffffffffffffffffffffffffffffffffffffffff1614806109b857506109b7856109b2611bce565b6116b5565b5b6109f7576040517f08c379a00000000000000000000000000000000000000000000000000000000081526004016109ee90614aeb565b60405180910390fd5b610a048585858585611df3565b5050505050565b610a148261094a565b610a2581610a20611bce565b612107565b610a2f83836121a4565b505050565b60606007805480602002602001604051908101604052809291908181526020016000905b82821015610b725783829060005260206000209060020201604051806040016040529081600082018054610a8b90615081565b80601f0160208091040260200160405190810160405280929190818152602001828054610ab790615081565b8015610b045780601f10610ad957610100808354040283529160200191610b04565b820191906000526020600020905b815481529060010190602001808311610ae757829003601f168201915b505050505081526020016001820160009054906101000a900473ffffffffffffffffffffffffffffffffffffffff1673ffffffffffffffffffffffffffffffffffffffff1673ffffffffffffffffffffffffffffffffffffffff168152505081526020019060010190610a58565b50505050905090565b610b83611bce565b73ffffffffffffffffffffffffffffffffffffffff168173ffffffffffffffffffffffffffffffffffffffff1614610bf0576040517f08c379a0000000000000000000000000000000000000000000000000000000008152600401610be790614c6b565b60405180910390fd5b610bfa82826121d8565b5050565b6060806000600860008573ffffffffffffffffffffffffffffffffffffffff1673ffffffffffffffffffffffffffffffffffffffff168152602001908152602001600020600001805480602002602001604051908101604052809291908181526020018280548015610c8f57602002820191906000526020600020905b815481526020019060010190808311610c7b575b505050505090506000815167ffffffffffffffff811115610cb357610cb2615274565b5b604051908082528060200260200182016040528015610ce15781602001602082028036833780820191505090505b50905060005b8251811015610d4657610d1486848381518110610d0757610d06615245565b5b6020026020010151610623565b828281518110610d2757610d26615245565b5b6020026020010181815250508080610d3e9061510f565b915050610ce7565b508181935093505050915091565b60608151835114610d9a576040517f08c379a0000000000000000000000000000000000000000000000000000000008152600401610d9190614c0b565b60405180910390fd5b6000835167ffffffffffffffff811115610db757610db6615274565b5b604051908082528060200260200182016040528015610de55781602001602082028036833780820191505090505b50905060005b8451811015610e6257610e32858281518110610e0a57610e09615245565b5b6020026020010151858381518110610e2557610e24615245565b5b6020026020010151610623565b828281518110610e4557610e44615245565b5b60200260200101818152505080610e5b9061510f565b9050610deb565b508091505092915050565b600080610e7983611121565b119050919050565b610e89611bce565b73ffffffffffffffffffffffffffffffffffffffff16610ea7610f09565b73ffffffffffffffffffffffffffffffffffffffff1614610efd576040517f08c379a0000000000000000000000000000000000000000000000000000000008152600401610ef490614b6b565b60405180910390fd5b610f07600061220c565b565b6000600660009054906101000a900473ffffffffffffffffffffffffffffffffffffffff16905090565b7f3c801090d1d22d8d8fe9837ef6d8ab50dfdff14e17d0039e333d4d7138ed50b381565b6000610f7e82600560008681526020019081526020016000206122d290919063ffffffff16565b905092915050565b60006004600084815260200190815260200160002060000160008373ffffffffffffffffffffffffffffffffffffffff1673ffffffffffffffffffffffffffffffffffffffff16815260200190815260200160002060009054906101000a900460ff16905092915050565b6000801b81565b61100a611003611bce565b83836122ec565b5050565b7fc7f57f62334013485e4f38a5db80299ddabc789b55dfd5de50aa0e793a992db86110408161103b611bce565b612107565b6110486138e8565b83816000018190525082816020019073ffffffffffffffffffffffffffffffffffffffff16908173ffffffffffffffffffffffffffffffffffffffff1681525050600781908060018154018082558091505060019003906000526020600020906002020160009091909190915060008201518160000190805190602001906110d1929190613918565b5060208201518160010160006101000a81548173ffffffffffffffffffffffffffffffffffffffff021916908373ffffffffffffffffffffffffffffffffffffffff160217905550505050505050565b600060036000838152602001908152602001600020549050919050565b816007805490508161ffff161061118a576040517f08c379a000000000000000000000000000000000000000000000000000000000815260040161118190614b8b565b60405180910390fd5b611192611bce565b73ffffffffffffffffffffffffffffffffffffffff1660078261ffff16815481106111c0576111bf615245565b5b906000526020600020906002020160010160009054906101000a900473ffffffffffffffffffffffffffffffffffffffff1673ffffffffffffffffffffffffffffffffffffffff16148061124157506112407f3c801090d1d22d8d8fe9837ef6d8ab50dfdff14e17d0039e333d4d7138ed50b361123b611bce565b610f86565b5b611280576040517f08c379a000000000000000000000000000000000000000000000000000000000815260040161127790614bcb565b60405180910390fd5b600660149054906101000a900460ff16156112d0576040517f08c379a00000000000000000000000000000000000000000000000000000000081526004016112c790614aab565b60405180910390fd5b6112ef848461ffff168460405180602001604052806000815250612459565b50505050565b6000611312600560008481526020019081526020016000206125ef565b9050919050565b8261132a611325611bce565b61164f565b101561136b576040517f08c379a000000000000000000000000000000000000000000000000000000000815260040161136290614bab565b60405180910390fd5b60008060008061138161137c611bce565b610bfe565b915091505b868410156113cd57808361ffff16815181106113a5576113a4615245565b5b6020026020010151846113b89190614e74565b935082806113c5906150e4565b935050611386565b60008361ffff1667ffffffffffffffff8111156113ed576113ec615274565b5b60405190808252806020026020018201604052801561141b5781602001602082028036833780820191505090505b50905060008461ffff1667ffffffffffffffff81111561143e5761143d615274565b5b60405190808252806020026020018201604052801561146c5781602001602082028036833780820191505090505b50905060009550600094505b888610156115c257838561ffff168151811061149757611496615245565b5b6020026020010151828661ffff16815181106114b6576114b5615245565b5b602002602001018181525050828561ffff16815181106114d9576114d8615245565b5b6020026020010151868a6114ed9190614f55565b10156115405785896114ff9190614f55565b818661ffff168151811061151657611515615245565b5b602002602001018181525050858961152e9190614f55565b866115399190614e74565b95506115af565b828561ffff168151811061155757611556615245565b5b6020026020010151818661ffff168151811061157657611575615245565b5b602002602001018181525050808561ffff168151811061159957611598615245565b5b6020026020010151866115ac9190614e74565b95505b84806115ba906150e4565b955050611478565b61161a6115cd611bce565b8b84848c8c8080601f016020809104026020016040519081016040528093929190818152602001838380828437600081840152601f19601f8201169050808301925050505050505061096a565b50505050505050505050565b61162f8261094a565b6116408161163b611bce565b612107565b61164a83836121d8565b505050565b600080600061165d84610bfe565b915091506000805b83518110156116a95782818151811061168157611680615245565b5b6020026020010151826116949190614e74565b915080806116a19061510f565b915050611665565b50809350505050919050565b6000600160008473ffffffffffffffffffffffffffffffffffffffff1673ffffffffffffffffffffffffffffffffffffffff16815260200190815260200160002060008373ffffffffffffffffffffffffffffffffffffffff1673ffffffffffffffffffffffffffffffffffffffff16815260200190815260200160002060009054906101000a900460ff16905092915050565b611751611bce565b73ffffffffffffffffffffffffffffffffffffffff168573ffffffffffffffffffffffffffffffffffffffff161480611797575061179685611791611bce565b6116b5565b5b6117d6576040517f08c379a00000000000000000000000000000000000000000000000000000000081526004016117cd90614a8b565b60405180910390fd5b6117e38585858585612604565b5050505050565b6117f2611bce565b73ffffffffffffffffffffffffffffffffffffffff16611810610f09565b73ffffffffffffffffffffffffffffffffffffffff1614611866576040517f08c379a000000000000000000000000000000000000000000000000000000000815260040161185d90614b6b565b60405180910390fd5b600073ffffffffffffffffffffffffffffffffffffffff168173ffffffffffffffffffffffffffffffffffffffff1614156118d6576040517f08c379a00000000000000000000000000000000000000000000000000000000081526004016118cd90614a4b565b60405180910390fd5b6118df8161220c565b50565b6118ec8282610f86565b6119bf5760016004600084815260200190815260200160002060000160008373ffffffffffffffffffffffffffffffffffffffff1673ffffffffffffffffffffffffffffffffffffffff16815260200190815260200160002060006101000a81548160ff021916908315150217905550611964611bce565b73ffffffffffffffffffffffffffffffffffffffff168173ffffffffffffffffffffffffffffffffffffffff16837f2f8788117e7eff1d82e926ec794901d17c78024a50270940304540a733656f0d60405160405180910390a45b5050565b60006119eb836000018373ffffffffffffffffffffffffffffffffffffffff1660001b612886565b905092915050565b60007f5a05180f000000000000000000000000000000000000000000000000000000007bffffffffffffffffffffffffffffffffffffffffffffffffffffffff1916827bffffffffffffffffffffffffffffffffffffffffffffffffffffffff19161480611a665750611a65826128f6565b5b9050919050565b60606000821415611ab5576040518060400160405280600181526020017f30000000000000000000000000000000000000000000000000000000000000008152509050611bc9565b600082905060005b60008214611ae7578080611ad09061510f565b915050600a82611ae09190614eca565b9150611abd565b60008167ffffffffffffffff811115611b0357611b02615274565b5b6040519080825280601f01601f191660200182016040528015611b355781602001600182028036833780820191505090505b5090505b60008514611bc257600182611b4e9190614f55565b9150600a85611b5d9190615158565b6030611b699190614e74565b60f81b818381518110611b7f57611b7e615245565b5b60200101907effffffffffffffffffffffffffffffffffffffffffffffffffffffffffffff1916908160001a905350600a85611bbb9190614eca565b9450611b39565b8093505050505b919050565b600033905090565b600073ffffffffffffffffffffffffffffffffffffffff168373ffffffffffffffffffffffffffffffffffffffff161415611c46576040517f08c379a0000000000000000000000000000000000000000000000000000000008152600401611c3d90614b2b565b60405180910390fd5b6000611c50611bce565b9050611c8081856000611c6287612970565b611c6b87612970565b604051806020016040528060008152506129ea565b600080600085815260200190815260200160002060008673ffffffffffffffffffffffffffffffffffffffff1673ffffffffffffffffffffffffffffffffffffffff16815260200190815260200160002054905082811015611d17576040517f08c379a0000000000000000000000000000000000000000000000000000000008152600401611d0e90614a6b565b60405180910390fd5b82810360008086815260200190815260200160002060008773ffffffffffffffffffffffffffffffffffffffff1673ffffffffffffffffffffffffffffffffffffffff16815260200190815260200160002081905550600073ffffffffffffffffffffffffffffffffffffffff168573ffffffffffffffffffffffffffffffffffffffff168373ffffffffffffffffffffffffffffffffffffffff167fc3d58168c5ae7397731d063d5bbf3d657854427343f4c083240f7aacaa2d0f628787604051611de4929190614ca6565b60405180910390a45050505050565b8151835114611e37576040517f08c379a0000000000000000000000000000000000000000000000000000000008152600401611e2e90614c2b565b60405180910390fd5b600073ffffffffffffffffffffffffffffffffffffffff168473ffffffffffffffffffffffffffffffffffffffff161415611ea7576040517f08c379a0000000000000000000000000000000000000000000000000000000008152600401611e9e90614acb565b60405180910390fd5b6000611eb1611bce565b9050611ec18187878787876129ea565b60005b8451811015612072576000858281518110611ee257611ee1615245565b5b602002602001015190506000858381518110611f0157611f00615245565b5b60200260200101519050600080600084815260200190815260200160002060008b73ffffffffffffffffffffffffffffffffffffffff1673ffffffffffffffffffffffffffffffffffffffff16815260200190815260200160002054905081811015611fa2576040517f08c379a0000000000000000000000000000000000000000000000000000000008152600401611f9990614b4b565b60405180910390fd5b81810360008085815260200190815260200160002060008c73ffffffffffffffffffffffffffffffffffffffff1673ffffffffffffffffffffffffffffffffffffffff168152602001908152602001600020819055508160008085815260200190815260200160002060008b73ffffffffffffffffffffffffffffffffffffffff1673ffffffffffffffffffffffffffffffffffffffff16815260200190815260200160002060008282546120579190614e74565b925050819055505050508061206b9061510f565b9050611ec4565b508473ffffffffffffffffffffffffffffffffffffffff168673ffffffffffffffffffffffffffffffffffffffff168273ffffffffffffffffffffffffffffffffffffffff167f4a39dc06d4c0dbc64b70af90fd698a233a518aa5d07e595d983b8c0526c8f7fb87876040516120e992919061493c565b60405180910390a46120ff818787878787612bd3565b505050505050565b6121118282610f86565b6121a0576121368173ffffffffffffffffffffffffffffffffffffffff166014612dba565b6121448360001c6020612dba565b6040516020016121559291906147e1565b6040516020818303038152906040526040517f08c379a000000000000000000000000000000000000000000000000000000000815260040161219791906149a9565b60405180910390fd5b5050565b6121ae82826118e2565b6121d381600560008581526020019081526020016000206119c390919063ffffffff16565b505050565b6121e28282612ff6565b61220781600560008581526020019081526020016000206130d890919063ffffffff16565b505050565b6000600660009054906101000a900473ffffffffffffffffffffffffffffffffffffffff16905081600660006101000a81548173ffffffffffffffffffffffffffffffffffffffff021916908373ffffffffffffffffffffffffffffffffffffffff1602179055508173ffffffffffffffffffffffffffffffffffffffff168173ffffffffffffffffffffffffffffffffffffffff167f8be0079c531659141344cd1fd0a4f28419497f9722a3daafe3b4186f6b6457e060405160405180910390a35050565b60006122e18360000183613108565b60001c905092915050565b8173ffffffffffffffffffffffffffffffffffffffff168373ffffffffffffffffffffffffffffffffffffffff16141561235b576040517f08c379a000000000000000000000000000000000000000000000000000000000815260040161235290614beb565b60405180910390fd5b80600160008573ffffffffffffffffffffffffffffffffffffffff1673ffffffffffffffffffffffffffffffffffffffff16815260200190815260200160002060008473ffffffffffffffffffffffffffffffffffffffff1673ffffffffffffffffffffffffffffffffffffffff16815260200190815260200160002060006101000a81548160ff0219169083151502179055508173ffffffffffffffffffffffffffffffffffffffff168373ffffffffffffffffffffffffffffffffffffffff167f17307eab39ab6107e8899845ad3d59bd9653f200f220920489ca2b5937696c318360405161244c9190614973565b60405180910390a3505050565b600073ffffffffffffffffffffffffffffffffffffffff168473ffffffffffffffffffffffffffffffffffffffff1614156124c9576040517f08c379a00000000000000000000000000000000000000000000000000000000081526004016124c090614c4b565b60405180910390fd5b60006124d3611bce565b90506124f4816000876124e588612970565b6124ee88612970565b876129ea565b8260008086815260200190815260200160002060008773ffffffffffffffffffffffffffffffffffffffff1673ffffffffffffffffffffffffffffffffffffffff16815260200190815260200160002060008282546125539190614e74565b925050819055508473ffffffffffffffffffffffffffffffffffffffff16600073ffffffffffffffffffffffffffffffffffffffff168273ffffffffffffffffffffffffffffffffffffffff167fc3d58168c5ae7397731d063d5bbf3d657854427343f4c083240f7aacaa2d0f6287876040516125d1929190614ca6565b60405180910390a46125e881600087878787613133565b5050505050565b60006125fd8260000161331a565b9050919050565b600073ffffffffffffffffffffffffffffffffffffffff168473ffffffffffffffffffffffffffffffffffffffff161415612674576040517f08c379a000000000000000000000000000000000000000000000000000000000815260040161266b90614acb565b60405180910390fd5b600061267e611bce565b905061269e81878761268f88612970565b61269888612970565b876129ea565b600080600086815260200190815260200160002060008873ffffffffffffffffffffffffffffffffffffffff1673ffffffffffffffffffffffffffffffffffffffff16815260200190815260200160002054905083811015612735576040517f08c379a000000000000000000000000000000000000000000000000000000000815260040161272c90614b4b565b60405180910390fd5b83810360008087815260200190815260200160002060008973ffffffffffffffffffffffffffffffffffffffff1673ffffffffffffffffffffffffffffffffffffffff168152602001908152602001600020819055508360008087815260200190815260200160002060008873ffffffffffffffffffffffffffffffffffffffff1673ffffffffffffffffffffffffffffffffffffffff16815260200190815260200160002060008282546127ea9190614e74565b925050819055508573ffffffffffffffffffffffffffffffffffffffff168773ffffffffffffffffffffffffffffffffffffffff168373ffffffffffffffffffffffffffffffffffffffff167fc3d58168c5ae7397731d063d5bbf3d657854427343f4c083240f7aacaa2d0f628888604051612867929190614ca6565b60405180910390a461287d828888888888613133565b50505050505050565b6000612892838361332b565b6128eb5782600001829080600181540180825580915050600190039060005260206000200160009091909190915055826000018054905083600101600084815260200190815260200160002081905550600190506128f0565b600090505b92915050565b60007f7965db0b000000000000000000000000000000000000000000000000000000007bffffffffffffffffffffffffffffffffffffffffffffffffffffffff1916827bffffffffffffffffffffffffffffffffffffffffffffffffffffffff1916148061296957506129688261334e565b5b9050919050565b60606000600167ffffffffffffffff81111561298f5761298e615274565b5b6040519080825280602002602001820160405280156129bd5781602001602082028036833780820191505090505b50905082816000815181106129d5576129d4615245565b5b60200260200101818152505080915050919050565b6129f8868686868686613430565b8373ffffffffffffffffffffffffffffffffffffffff168573ffffffffffffffffffffffffffffffffffffffff1614612bcb576000600860008773ffffffffffffffffffffffffffffffffffffffff1673ffffffffffffffffffffffffffffffffffffffff16815260200190815260200160002090506000600860008773ffffffffffffffffffffffffffffffffffffffff1673ffffffffffffffffffffffffffffffffffffffff168152602001908152602001600020905060005b8551811015612bc7576000858281518110612ad257612ad1615245565b5b602002602001015190506000811115612bb3576000878381518110612afa57612af9615245565b5b60200260200101519050600073ffffffffffffffffffffffffffffffffffffffff168a73ffffffffffffffffffffffffffffffffffffffff1614158015612b49575081612b478b83610623565b145b15612b5a57612b5885826135aa565b505b600073ffffffffffffffffffffffffffffffffffffffff168973ffffffffffffffffffffffffffffffffffffffff1614158015612ba057506000612b9e8a83610623565b145b15612bb157612baf84826136bc565b505b505b508080612bbf9061510f565b915050612ab4565b5050505b505050505050565b612bf28473ffffffffffffffffffffffffffffffffffffffff1661372c565b15612db2578373ffffffffffffffffffffffffffffffffffffffff1663bc197c8187878686866040518663ffffffff1660e01b8152600401612c38959493929190614836565b602060405180830381600087803b158015612c5257600080fd5b505af1925050508015612c8357506040513d601f19601f82011682018060405250810190612c80919061412c565b60015b612d2957612c8f6152a3565b806308c379a01415612cec5750612ca4615988565b80612caf5750612cee565b806040517f08c379a0000000000000000000000000000000000000000000000000000000008152600401612ce391906149a9565b60405180910390fd5b505b6040517f08c379a0000000000000000000000000000000000000000000000000000000008152600401612d20906149cb565b60405180910390fd5b63bc197c8160e01b7bffffffffffffffffffffffffffffffffffffffffffffffffffffffff1916817bffffffffffffffffffffffffffffffffffffffffffffffffffffffff191614612db0576040517f08c379a0000000000000000000000000000000000000000000000000000000008152600401612da790614a0b565b60405180910390fd5b505b505050505050565b606060006002836002612dcd9190614efb565b612dd79190614e74565b67ffffffffffffffff811115612df057612def615274565b5b6040519080825280601f01601f191660200182016040528015612e225781602001600182028036833780820191505090505b5090507f300000000000000000000000000000000000000000000000000000000000000081600081518110612e5a57612e59615245565b5b60200101907effffffffffffffffffffffffffffffffffffffffffffffffffffffffffffff1916908160001a9053507f780000000000000000000000000000000000000000000000000000000000000081600181518110612ebe57612ebd615245565b5b60200101907effffffffffffffffffffffffffffffffffffffffffffffffffffffffffffff1916908160001a90535060006001846002612efe9190614efb565b612f089190614e74565b90505b6001811115612fa8577f3031323334353637383961626364656600000000000000000000000000000000600f861660108110612f4a57612f49615245565b5b1a60f81b828281518110612f6157612f60615245565b5b60200101907effffffffffffffffffffffffffffffffffffffffffffffffffffffffffffff1916908160001a905350600485901c945080612fa190615057565b9050612f0b565b5060008414612fec576040517f08c379a0000000000000000000000000000000000000000000000000000000008152600401612fe3906149eb565b60405180910390fd5b8091505092915050565b6130008282610f86565b156130d45760006004600084815260200190815260200160002060000160008373ffffffffffffffffffffffffffffffffffffffff1673ffffffffffffffffffffffffffffffffffffffff16815260200190815260200160002060006101000a81548160ff021916908315150217905550613079611bce565b73ffffffffffffffffffffffffffffffffffffffff168173ffffffffffffffffffffffffffffffffffffffff16837ff6391f5c32d9c69d2a47ea670b442974b53935d1edc7fd64eb21e047a839171b60405160405180910390a45b5050565b6000613100836000018373ffffffffffffffffffffffffffffffffffffffff1660001b61373f565b905092915050565b60008260000182815481106131205761311f615245565b5b9060005260206000200154905092915050565b6131528473ffffffffffffffffffffffffffffffffffffffff1661372c565b15613312578373ffffffffffffffffffffffffffffffffffffffff1663f23a6e6187878686866040518663ffffffff1660e01b815260040161319895949392919061489e565b602060405180830381600087803b1580156131b257600080fd5b505af19250505080156131e357506040513d601f19601f820116820180604052508101906131e0919061412c565b60015b613289576131ef6152a3565b806308c379a0141561324c5750613204615988565b8061320f575061324e565b806040517f08c379a000000000000000000000000000000000000000000000000000000000815260040161324391906149a9565b60405180910390fd5b505b6040517f08c379a0000000000000000000000000000000000000000000000000000000008152600401613280906149cb565b60405180910390fd5b63f23a6e6160e01b7bffffffffffffffffffffffffffffffffffffffffffffffffffffffff1916817bffffffffffffffffffffffffffffffffffffffffffffffffffffffff191614613310576040517f08c379a000000000000000000000000000000000000000000000000000000000815260040161330790614a0b565b60405180910390fd5b505b505050505050565b600081600001805490509050919050565b600080836001016000848152602001908152602001600020541415905092915050565b60007fd9b67a26000000000000000000000000000000000000000000000000000000007bffffffffffffffffffffffffffffffffffffffffffffffffffffffff1916827bffffffffffffffffffffffffffffffffffffffffffffffffffffffff1916148061341957507f0e89341c000000000000000000000000000000000000000000000000000000007bffffffffffffffffffffffffffffffffffffffffffffffffffffffff1916827bffffffffffffffffffffffffffffffffffffffffffffffffffffffff1916145b80613429575061342882613853565b5b9050919050565b61343e8686868686866138bd565b600073ffffffffffffffffffffffffffffffffffffffff168573ffffffffffffffffffffffffffffffffffffffff1614156134f05760005b83518110156134ee5782818151811061349257613491615245565b5b6020026020010151600360008684815181106134b1576134b0615245565b5b6020026020010151815260200190815260200160002060008282546134d69190614e74565b92505081905550806134e79061510f565b9050613476565b505b600073ffffffffffffffffffffffffffffffffffffffff168473ffffffffffffffffffffffffffffffffffffffff1614156135a25760005b83518110156135a05782818151811061354457613543615245565b5b60200260200101516003600086848151811061356357613562615245565b5b6020026020010151815260200190815260200160002060008282546135889190614f55565b92505081905550806135999061510f565b9050613528565b505b505050505050565b600080836001016000848152602001908152602001600020549050600081146136b05760006001826135dc9190614f55565b9050600085600001600187600001805490506135f89190614f55565b8154811061360957613608615245565b5b906000526020600020015490508086600001838154811061362d5761362c615245565b5b90600052602060002001819055506001826136489190614e74565b866001016000838152602001908152602001600020819055508560000180548061367557613674615216565b5b6001900381819060005260206000200160009055905585600101600086815260200190815260200160002060009055600193505050506136b6565b60009150505b92915050565b60006136c883836138c5565b613721578260000182908060018154018082558091505060019003906000526020600020016000909190919091505582600001805490508360010160008481526020019081526020016000208190555060019050613726565b600090505b92915050565b600080823b905060008111915050919050565b600080836001016000848152602001908152602001600020549050600081146138475760006001826137719190614f55565b90506000600186600001805490506137899190614f55565b90508181146137f85760008660000182815481106137aa576137a9615245565b5b90600052602060002001549050808760000184815481106137ce576137cd615245565b5b90600052602060002001819055508387600101600083815260200190815260200160002081905550505b8560000180548061380c5761380b615216565b5b60019003818190600052602060002001600090559055856001016000868152602001908152602001600020600090556001935050505061384d565b60009150505b92915050565b60007f01ffc9a7000000000000000000000000000000000000000000000000000000007bffffffffffffffffffffffffffffffffffffffffffffffffffffffff1916827bffffffffffffffffffffffffffffffffffffffffffffffffffffffff1916149050919050565b505050505050565b600080836001016000848152602001908152602001600020541415905092915050565b604051806040016040528060608152602001600073ffffffffffffffffffffffffffffffffffffffff1681525090565b82805461392490615081565b90600052602060002090601f016020900481019282613946576000855561398d565b82601f1061395f57805160ff191683800117855561398d565b8280016001018555821561398d579182015b8281111561398c578251825591602001919060010190613971565b5b50905061399a919061399e565b5090565b5b808211156139b757600081600090555060010161399f565b5090565b60006139ce6139c984614cf4565b614ccf565b905080838252602082019050828560208602820111156139f1576139f06152cf565b5b60005b85811015613a215781613a078882613b1f565b8452602084019350602083019250506001810190506139f4565b5050509392505050565b6000613a3e613a3984614d20565b614ccf565b90508083825260208201905082856020860282011115613a6157613a606152cf565b5b60005b85811015613a915781613a778882613cab565b845260208401935060208301925050600181019050613a64565b5050509392505050565b6000613aae613aa984614d4c565b614ccf565b905082815260208101848484011115613aca57613ac96152d4565b5b613ad5848285615015565b509392505050565b6000613af0613aeb84614d7d565b614ccf565b905082815260208101848484011115613b0c57613b0b6152d4565b5b613b17848285615015565b509392505050565b600081359050613b2e81615a1e565b92915050565b600082601f830112613b4957613b486152ca565b5b8135613b598482602086016139bb565b91505092915050565b600082601f830112613b7757613b766152ca565b5b8135613b87848260208601613a2b565b91505092915050565b600081359050613b9f81615a35565b92915050565b600081359050613bb481615a4c565b92915050565b600081359050613bc981615a63565b92915050565b600081519050613bde81615a63565b92915050565b60008083601f840112613bfa57613bf96152ca565b5b8235905067ffffffffffffffff811115613c1757613c166152c5565b5b602083019150836001820283011115613c3357613c326152cf565b5b9250929050565b600082601f830112613c4f57613c4e6152ca565b5b8135613c5f848260208601613a9b565b91505092915050565b600082601f830112613c7d57613c7c6152ca565b5b8135613c8d848260208601613add565b91505092915050565b600081359050613ca581615a7a565b92915050565b600081359050613cba81615a91565b92915050565b600060208284031215613cd657613cd56152de565b5b6000613ce484828501613b1f565b91505092915050565b60008060408385031215613d0457613d036152de565b5b6000613d1285828601613b1f565b9250506020613d2385828601613b1f565b9150509250929050565b600080600080600060a08688031215613d4957613d486152de565b5b6000613d5788828901613b1f565b9550506020613d6888828901613b1f565b945050604086013567ffffffffffffffff811115613d8957613d886152d9565b5b613d9588828901613b62565b935050606086013567ffffffffffffffff811115613db657613db56152d9565b5b613dc288828901613b62565b925050608086013567ffffffffffffffff811115613de357613de26152d9565b5b613def88828901613c3a565b9150509295509295909350565b600080600080600060a08688031215613e1857613e176152de565b5b6000613e2688828901613b1f565b9550506020613e3788828901613b1f565b9450506040613e4888828901613cab565b9350506060613e5988828901613cab565b925050608086013567ffffffffffffffff811115613e7a57613e796152d9565b5b613e8688828901613c3a565b9150509295509295909350565b60008060408385031215613eaa57613ea96152de565b5b6000613eb885828601613b1f565b9250506020613ec985828601613b90565b9150509250929050565b600080600060608486031215613eec57613eeb6152de565b5b6000613efa86828701613b1f565b9350506020613f0b86828701613c96565b9250506040613f1c86828701613cab565b9150509250925092565b60008060408385031215613f3d57613f3c6152de565b5b6000613f4b85828601613b1f565b9250506020613f5c85828601613cab565b9150509250929050565b60008060008060608587031215613f8057613f7f6152de565b5b6000613f8e87828801613b1f565b9450506020613f9f87828801613cab565b935050604085013567ffffffffffffffff811115613fc057613fbf6152d9565b5b613fcc87828801613be4565b925092505092959194509250565b60008060408385031215613ff157613ff06152de565b5b600083013567ffffffffffffffff81111561400f5761400e6152d9565b5b61401b85828601613b34565b925050602083013567ffffffffffffffff81111561403c5761403b6152d9565b5b61404885828601613b62565b9150509250929050565b600060208284031215614068576140676152de565b5b600061407684828501613ba5565b91505092915050565b60008060408385031215614096576140956152de565b5b60006140a485828601613ba5565b92505060206140b585828601613b1f565b9150509250929050565b600080604083850312156140d6576140d56152de565b5b60006140e485828601613ba5565b92505060206140f585828601613cab565b9150509250929050565b600060208284031215614115576141146152de565b5b600061412384828501613bba565b91505092915050565b600060208284031215614142576141416152de565b5b600061415084828501613bcf565b91505092915050565b600080604083850312156141705761416f6152de565b5b600083013567ffffffffffffffff81111561418e5761418d6152d9565b5b61419a85828601613c68565b92505060206141ab85828601613b1f565b9150509250929050565b6000602082840312156141cb576141ca6152de565b5b60006141d984828501613cab565b91505092915050565b60006141ee8383614764565b905092915050565b600061420283836147a1565b60208301905092915050565b61421781614f89565b82525050565b61422681614f89565b82525050565b600061423782614dce565b6142418185614e14565b93508360208202850161425385614dae565b8060005b8581101561428f578484038952815161427085826141e2565b945061427b83614dfa565b925060208a01995050600181019050614257565b50829750879550505050505092915050565b60006142ac82614dd9565b6142b68185614e25565b93506142c183614dbe565b8060005b838110156142f25781516142d988826141f6565b97506142e483614e07565b9250506001810190506142c5565b5085935050505092915050565b61430881614f9b565b82525050565b61431781614fa7565b82525050565b600061432882614de4565b6143328185614e36565b9350614342818560208601615024565b61434b816152e3565b840191505092915050565b600061436182614def565b61436b8185614e47565b935061437b818560208601615024565b614384816152e3565b840191505092915050565b600061439a82614def565b6143a48185614e58565b93506143b4818560208601615024565b6143bd816152e3565b840191505092915050565b60006143d382614def565b6143dd8185614e69565b93506143ed818560208601615024565b80840191505092915050565b6000614406603483614e58565b915061441182615301565b604082019050919050565b6000614429602083614e58565b915061443482615350565b602082019050919050565b600061444c602883614e58565b915061445782615379565b604082019050919050565b600061446f602b83614e58565b915061447a826153c8565b604082019050919050565b6000614492602683614e58565b915061449d82615417565b604082019050919050565b60006144b5602483614e58565b91506144c082615466565b604082019050919050565b60006144d8602983614e58565b91506144e3826154b5565b604082019050919050565b60006144fb602783614e69565b915061450682615504565b602782019050919050565b600061451e601583614e58565b915061452982615553565b602082019050919050565b6000614541602583614e58565b915061454c8261557c565b604082019050919050565b6000614564603283614e58565b915061456f826155cb565b604082019050919050565b6000614587601183614e58565b91506145928261561a565b602082019050919050565b60006145aa602383614e58565b91506145b582615643565b604082019050919050565b60006145cd602a83614e58565b91506145d882615692565b604082019050919050565b60006145f0602083614e58565b91506145fb826156e1565b602082019050919050565b6000614613601683614e58565b915061461e8261570a565b602082019050919050565b6000614636601183614e58565b915061464182615733565b602082019050919050565b6000614659602583614e58565b91506146648261575c565b604082019050919050565b600061467c601783614e69565b9150614687826157ab565b601782019050919050565b600061469f602983614e58565b91506146aa826157d4565b604082019050919050565b60006146c2602983614e58565b91506146cd82615823565b604082019050919050565b60006146e5602883614e58565b91506146f082615872565b604082019050919050565b6000614708602183614e58565b9150614713826158c1565b604082019050919050565b600061472b601183614e69565b915061473682615910565b601182019050919050565b600061474e602f83614e58565b915061475982615939565b604082019050919050565b600060408301600083015184820360008601526147818282614356565b9150506020830151614796602086018261420e565b508091505092915050565b6147aa8161500b565b82525050565b6147b98161500b565b82525050565b60006147ca826144ee565b91506147d682846143c8565b915081905092915050565b60006147ec8261466f565b91506147f882856143c8565b91506148038261471e565b915061480f82846143c8565b91508190509392505050565b6000602082019050614830600083018461421d565b92915050565b600060a08201905061484b600083018861421d565b614858602083018761421d565b818103604083015261486a81866142a1565b9050818103606083015261487e81856142a1565b90508181036080830152614892818461431d565b90509695505050505050565b600060a0820190506148b3600083018861421d565b6148c0602083018761421d565b6148cd60408301866147b0565b6148da60608301856147b0565b81810360808301526148ec818461431d565b90509695505050505050565b60006020820190508181036000830152614912818461422c565b905092915050565b6000602082019050818103600083015261493481846142a1565b905092915050565b6000604082019050818103600083015261495681856142a1565b9050818103602083015261496a81846142a1565b90509392505050565b600060208201905061498860008301846142ff565b92915050565b60006020820190506149a3600083018461430e565b92915050565b600060208201905081810360008301526149c3818461438f565b905092915050565b600060208201905081810360008301526149e4816143f9565b9050919050565b60006020820190508181036000830152614a048161441c565b9050919050565b60006020820190508181036000830152614a248161443f565b9050919050565b60006020820190508181036000830152614a4481614462565b9050919050565b60006020820190508181036000830152614a6481614485565b9050919050565b60006020820190508181036000830152614a84816144a8565b9050919050565b60006020820190508181036000830152614aa4816144cb565b9050919050565b60006020820190508181036000830152614ac481614511565b9050919050565b60006020820190508181036000830152614ae481614534565b9050919050565b60006020820190508181036000830152614b0481614557565b9050919050565b60006020820190508181036000830152614b248161457a565b9050919050565b60006020820190508181036000830152614b448161459d565b9050919050565b60006020820190508181036000830152614b64816145c0565b9050919050565b60006020820190508181036000830152614b84816145e3565b9050919050565b60006020820190508181036000830152614ba481614606565b9050919050565b60006020820190508181036000830152614bc481614629565b9050919050565b60006020820190508181036000830152614be48161464c565b9050919050565b60006020820190508181036000830152614c0481614692565b9050919050565b60006020820190508181036000830152614c24816146b5565b9050919050565b60006020820190508181036000830152614c44816146d8565b9050919050565b60006020820190508181036000830152614c64816146fb565b9050919050565b60006020820190508181036000830152614c8481614741565b9050919050565b6000602082019050614ca060008301846147b0565b92915050565b6000604082019050614cbb60008301856147b0565b614cc860208301846147b0565b9392505050565b6000614cd9614cea565b9050614ce582826150b3565b919050565b6000604051905090565b600067ffffffffffffffff821115614d0f57614d0e615274565b5b602082029050602081019050919050565b600067ffffffffffffffff821115614d3b57614d3a615274565b5b602082029050602081019050919050565b600067ffffffffffffffff821115614d6757614d66615274565b5b614d70826152e3565b9050602081019050919050565b600067ffffffffffffffff821115614d9857614d97615274565b5b614da1826152e3565b9050602081019050919050565b6000819050602082019050919050565b6000819050602082019050919050565b600081519050919050565b600081519050919050565b600081519050919050565b600081519050919050565b6000602082019050919050565b6000602082019050919050565b600082825260208201905092915050565b600082825260208201905092915050565b600082825260208201905092915050565b600082825260208201905092915050565b600082825260208201905092915050565b600081905092915050565b6000614e7f8261500b565b9150614e8a8361500b565b9250827fffffffffffffffffffffffffffffffffffffffffffffffffffffffffffffffff03821115614ebf57614ebe615189565b5b828201905092915050565b6000614ed58261500b565b9150614ee08361500b565b925082614ef057614eef6151b8565b5b828204905092915050565b6000614f068261500b565b9150614f118361500b565b9250817fffffffffffffffffffffffffffffffffffffffffffffffffffffffffffffffff0483118215151615614f4a57614f49615189565b5b828202905092915050565b6000614f608261500b565b9150614f6b8361500b565b925082821015614f7e57614f7d615189565b5b828203905092915050565b6000614f9482614feb565b9050919050565b60008115159050919050565b6000819050919050565b60007fffffffff0000000000000000000000000000000000000000000000000000000082169050919050565b600061ffff82169050919050565b600073ffffffffffffffffffffffffffffffffffffffff82169050919050565b6000819050919050565b82818337600083830152505050565b60005b83811015615042578082015181840152602081019050615027565b83811115615051576000848401525b50505050565b60006150628261500b565b9150600082141561507657615075615189565b5b600182039050919050565b6000600282049050600182168061509957607f821691505b602082108114156150ad576150ac6151e7565b5b50919050565b6150bc826152e3565b810181811067ffffffffffffffff821117156150db576150da615274565b5b80604052505050565b60006150ef82614fdd565b915061ffff82141561510457615103615189565b5b600182019050919050565b600061511a8261500b565b91507fffffffffffffffffffffffffffffffffffffffffffffffffffffffffffffffff82141561514d5761514c615189565b5b600182019050919050565b60006151638261500b565b915061516e8361500b565b92508261517e5761517d6151b8565b5b828206905092915050565b7f4e487b7100000000000000000000000000000000000000000000000000000000600052601160045260246000fd5b7f4e487b7100000000000000000000000000000000000000000000000000000000600052601260045260246000fd5b7f4e487b7100000000000000000000000000000000000000000000000000000000600052602260045260246000fd5b7f4e487b7100000000000000000000000000000000000000000000000000000000600052603160045260246000fd5b7f4e487b7100000000000000000000000000000000000000000000000000000000600052603260045260246000fd5b7f4e487b7100000000000000000000000000000000000000000000000000000000600052604160045260246000fd5b600060033d11156152c25760046000803e6152bf6000516152f4565b90505b90565b600080fd5b600080fd5b600080fd5b600080fd5b600080fd5b600080fd5b6000601f19601f8301169050919050565b60008160e01c9050919050565b7f455243313135353a207472616e7366657220746f206e6f6e204552433131353560008201527f526563656976657220696d706c656d656e746572000000000000000000000000602082015250565b7f537472696e67733a20686578206c656e67746820696e73756666696369656e74600082015250565b7f455243313135353a204552433131353552656365697665722072656a6563746560008201527f6420746f6b656e73000000000000000000000000000000000000000000000000602082015250565b7f455243313135353a2062616c616e636520717565727920666f7220746865207a60008201527f65726f2061646472657373000000000000000000000000000000000000000000602082015250565b7f4f776e61626c653a206e6577206f776e657220697320746865207a65726f206160008201527f6464726573730000000000000000000000000000000000000000000000000000602082015250565b7f455243313135353a206275726e20616d6f756e7420657863656564732062616c60008201527f616e636500000000000000000000000000000000000000000000000000000000602082015250565b7f455243313135353a2063616c6c6572206973206e6f74206f776e6572206e6f7260008201527f20617070726f7665640000000000000000000000000000000000000000000000602082015250565b7f68747470733a2f2f746573742e636f6c6f7265646d6f6e65792e636f6d2f656e60008201527f7469746965732f00000000000000000000000000000000000000000000000000602082015250565b7f436f6e74726163742069732073757370656e6465640000000000000000000000600082015250565b7f455243313135353a207472616e7366657220746f20746865207a65726f20616460008201527f6472657373000000000000000000000000000000000000000000000000000000602082015250565b7f455243313135353a207472616e736665722063616c6c6572206973206e6f742060008201527f6f776e6572206e6f7220617070726f7665640000000000000000000000000000602082015250565b7f4e6f7420656e6f756768206974656d7321000000000000000000000000000000600082015250565b7f455243313135353a206275726e2066726f6d20746865207a65726f206164647260008201527f6573730000000000000000000000000000000000000000000000000000000000602082015250565b7f455243313135353a20696e73756666696369656e742062616c616e636520666f60008201527f72207472616e7366657200000000000000000000000000000000000000000000602082015250565b7f4f776e61626c653a2063616c6c6572206973206e6f7420746865206f776e6572600082015250565b7f456e7469747920646f6573206e6f742065786973747300000000000000000000600082015250565b7f4e6f7420656e6f7567682066756e647321000000000000000000000000000000600082015250565b7f43616c6c6572206973206e6f7420746865206f776e6572206f6620746865206560008201527f6e74697479000000000000000000000000000000000000000000000000000000602082015250565b7f416363657373436f6e74726f6c3a206163636f756e7420000000000000000000600082015250565b7f455243313135353a2073657474696e6720617070726f76616c2073746174757360008201527f20666f722073656c660000000000000000000000000000000000000000000000602082015250565b7f455243313135353a206163636f756e747320616e6420696473206c656e67746860008201527f206d69736d617463680000000000000000000000000000000000000000000000602082015250565b7f455243313135353a2069647320616e6420616d6f756e7473206c656e6774682060008201527f6d69736d61746368000000000000000000000000000000000000000000000000602082015250565b7f455243313135353a206d696e7420746f20746865207a65726f2061646472657360008201527f7300000000000000000000000000000000000000000000000000000000000000602082015250565b7f206973206d697373696e6720726f6c6520000000000000000000000000000000600082015250565b7f416363657373436f6e74726f6c3a2063616e206f6e6c792072656e6f756e636560008201527f20726f6c657320666f722073656c660000000000000000000000000000000000602082015250565b600060443d101561599857615a1b565b6159a0614cea565b60043d036004823e80513d602482011167ffffffffffffffff821117156159c8575050615a1b565b808201805167ffffffffffffffff8111156159e65750505050615a1b565b80602083010160043d038501811115615a03575050505050615a1b565b615a12826020018501866150b3565b82955050505050505b90565b615a2781614f89565b8114615a3257600080fd5b50565b615a3e81614f9b565b8114615a4957600080fd5b50565b615a5581614fa7565b8114615a6057600080fd5b50565b615a6c81614fb1565b8114615a7757600080fd5b50565b615a8381614fdd565b8114615a8e57600080fd5b50565b615a9a8161500b565b8114615aa557600080fd5b5056fea2646970667358221220e678d997e229ca4b11999024558999f58ba73ab39fe267219b18a66eac6c52a164736f6c6343000806003368747470733a2f2f67616d652e636861696e736f66676c6f72792e636f6d2f6d6174657269616c2f7b69647d2e6a736f6e",
  "immutableReferences": {},
  "source": "//SPDX-License-Identifier: MIT\npragma solidity ^0.8.0;\n\nimport \"@openzeppelin/contracts/token/ERC1155/extensions/ERC1155Supply.sol\";\nimport \"@openzeppelin/contracts/access/Ownable.sol\";\nimport \"@openzeppelin/contracts/access/AccessControlEnumerable.sol\";\nimport \"@openzeppelin/contracts/utils/Counters.sol\";\n\n\n\ncontract ColoredMoney is ERC1155Supply, AccessControlEnumerable, Ownable {\n\n    //Boolean to suspend and resume the Smart Contract\n    bool private suspended=false;\n\n    //Roles present in the Smart Contract\n    bytes32 public constant ENTITY_MANAGER = keccak256(\"ENTITY_MANAGER\");\n    bytes32 public constant REGULATOR = keccak256(\"REGULATOR\");\n\n    \n    struct Entity {\n        string entityName;\n        address entityAddress;\n    }\n    \n    //Array with all entities onboarded    \n    Entity[] Entities;\n\n\n    //Set definition for reverse mapping\n    struct TokenSet {\n        //_values contains the elements of the set\n        //_indexes contains the position in the array of the set element (o for not existant)\n        uint256[] _values;\n        // 1-indexed to allow 0 to signify nonexistence\n        mapping(uint256 => uint256) _indexes;\n    }\n\n    //Quick way to get all tokens for a given address\n    mapping(address => TokenSet) tokensByAccount;    \n\n\n    //Checks that the entity exists and caller is the owner of that entity\n    modifier onlyEntity(uint16 entityId) {\n        require(entityId<Entities.length, \"Entity does not exists\");\n        require(Entities[entityId].entityAddress == _msgSender() || hasRole(REGULATOR, _msgSender()), \"Caller is not the owner of the entity\");\n        _;\n    }\n\n    constructor() ERC1155(\"https://game.chainsofglory.com/material/{id}.json\") {\n        _setupRole(DEFAULT_ADMIN_ROLE, _msgSender());\n\n        //Assign to the creator the role of entity manager, just for convinience\n        _setupRole(ENTITY_MANAGER, _msgSender());\n        \n    }\n\n\n    function mint (address _to, uint16 entityId, uint256 amount) public onlyEntity(entityId) {\n        require(!suspended, \"Contract is suspended\");\n        _mint(_to, entityId, amount, \"\");\n    }\n\n    function burn(address from, uint16 entityId, uint256 amount) public onlyEntity(entityId) {\n        require(!suspended, \"Contract is suspended\");\n        require(balanceOf(from, entityId)>=amount, \"Not enough items!\");\n        _burn(from, entityId, amount);\n    }\n\n    //Function that returns the consolidated balance of a wallet\n    //Adds all balances of diferent tokens in that wallet\n    function consolidatedBalanceOf(address _owner) public view returns (uint256) {\n        (uint256[] memory tokens, uint256[] memory balances) = getTokensByOwner(_owner);\n        \n        uint256 balance=0;\n        for(uint i=0; i<tokens.length; i++)\n            balance+=balances[i];\n        return balance;\n    }\n\n    //Transfer tokens of diferent colors until get the desired amount\n    function consolidatedTransfer(address _to, uint256 _value, bytes calldata _data) public {\n        require(consolidatedBalanceOf(_msgSender())>=_value, \"Not enough funds!\");\n\n        uint256 total=0;\n        uint16 index=0;\n        \n        //First we retierve all balances\n        (uint256[] memory tokens, uint256[] memory balances) = getTokensByOwner(_msgSender());\n        \n        //Then we need to calculate the required lenght\n        while(total < _value) {\n            total+=balances[index];\n            index++;\n        }\n        \n        //Allocate memory for the arrays\n        uint256[] memory ids= new uint256[](index);\n        uint256[] memory amounts= new uint256[](index);\n\n        //Reset counters to zero\n        total=0;\n        index=0;\n\n        while(total < _value) {\n            ids[index]=tokens[index];\n            if(_value-total < balances[index]) {\n                amounts[index]=_value-total;\n                total+=_value-total;\n            }\n            else {\n                amounts[index]=balances[index];\n                total+=amounts[index];\n            }\n            index++;\n        }\n\n        //Make the appropriate transfer\n        safeBatchTransferFrom(_msgSender(), _to, ids, amounts, _data);\n        \n    }\n\n    //Adds a new entity to the collection\n    //Requires teh NTITY_MANAGER role\n    //\n    //Simple management of entities, for the testing we do not include delete or modify entities.\n    function addEntity(string memory name, address wallet) public onlyRole(ENTITY_MANAGER) {      \n        Entity memory newEntity;\n        newEntity.entityName=name;\n        newEntity.entityAddress=wallet;\n        Entities.push(newEntity);\n    }\n\n    //Returns all entities\n    function getEntities() public view returns(Entity[] memory) {\n        return Entities;\n    }\n\n\n    //Needed in an ERC1155. We may use this to provide entity information\n    //So far it points to non-existatnt web\n    function uri(uint256 entityId) public view virtual override returns (string memory) {\n        return string(abi.encodePacked(\"https://test.coloredmoney.com/entities/\",Strings.toString(entityId)));\n    }\n\n    //Needed to properly implemet abn ERC1155\n    function supportsInterface(bytes4 interfaceId) public view virtual override(ERC1155, AccessControlEnumerable) returns (bool) {        \n        return super.supportsInterface(interfaceId);\n    }\n\n    //Returns two arrays \n    // first:  Entity id \n    // seconf: Balance of this tokens\n    function getTokensByOwner(address _from) public view returns(uint256[] memory tokens, uint256[] memory balances) {\n        uint256[] memory ftokens = tokensByAccount[_from]._values;        \n        uint256[] memory fbalances = new uint256[](ftokens.length);\n        for (uint256 i; i < ftokens.length; i++)\n            fbalances[i] = balanceOf(_from, ftokens[i]);\n\n        return (ftokens, fbalances);\n}\n    \n    //We need this to maintain the tokensByAccount set\n    function _beforeTokenTransfer(address operator, address from, address to, uint256[] memory ids, uint256[] memory amounts, bytes memory data) internal virtual override {\n        super._beforeTokenTransfer(operator, from, to, ids, amounts, data);\n\n        if (from != to) {\n            \n            TokenSet storage fromTokens = tokensByAccount[from];\n            TokenSet storage toTokens = tokensByAccount[to];\n\n            for (uint256 i; i < ids.length; i++) {\n                uint256 amount = amounts[i];\n\n                if (amount > 0) {\n                    uint256 id = ids[i];\n\n                    //If we are moving from a real address (no minting) all the tokens owned\n                    if (from != address(0) && balanceOf(from, id) == amount) \n                        removeFromSet(fromTokens, id);\n\n                    //If we are moving to a rea account (no burning) that has no items\n                    if (to != address(0)  && balanceOf(to, id) == 0) \n                        addToSet(toTokens, id);\n                }\n            }\n        }\n    }\n\n    //Set functions\n    function _contains(TokenSet storage set, uint256 value) private view returns (bool)\n    {\n        return set._indexes[value] != 0;\n    }\n\n    function addToSet(TokenSet storage set, uint256 value) private returns (bool) {\n        if (!_contains(set, value)) {\n            set._values.push(value);\n            set._indexes[value] = set._values.length;\n            return true;\n        } else {\n            return false;\n        }\n    }\n\n    function removeFromSet(TokenSet storage set, uint256 value) private returns (bool) {\n        uint256 valueIndex = set._indexes[value];\n\n        if (valueIndex != 0) {\n            uint256 index = valueIndex - 1;\n            uint256 last = set._values[set._values.length - 1];\n\n            // move last value to now-vacant index\n\n            set._values[index] = last;\n            set._indexes[last] = index + 1;\n\n            // clear last index\n\n            set._values.pop();\n            delete set._indexes[value];\n\n            return true;\n        } else {\n            return false;\n        }\n    }\n}\n",
  "sourcePath": "/Users/n65598/Development/Colored-Money/contracts/ColoredMoney.sol",
  "compiler": {
    "name": "solc",
    "version": "0.8.6+commit.11564f7e.Emscripten.clang"
  },
  "schemaVersion": "3.4.3",
  "updatedAt": "2022-12-07T11:01:29.108Z",
  "devdoc": {
    "kind": "dev",
    "methods": {
      "balanceOf(address,uint256)": {
        "details": "See {IERC1155-balanceOf}. Requirements: - `account` cannot be the zero address."
      },
      "balanceOfBatch(address[],uint256[])": {
        "details": "See {IERC1155-balanceOfBatch}. Requirements: - `accounts` and `ids` must have the same length."
      },
      "exists(uint256)": {
        "details": "Indicates whether any token exist with a given id, or not."
      },
      "getRoleAdmin(bytes32)": {
        "details": "Returns the admin role that controls `role`. See {grantRole} and {revokeRole}. To change a role's admin, use {_setRoleAdmin}."
      },
      "getRoleMember(bytes32,uint256)": {
        "details": "Returns one of the accounts that have `role`. `index` must be a value between 0 and {getRoleMemberCount}, non-inclusive. Role bearers are not sorted in any particular way, and their ordering may change at any point. WARNING: When using {getRoleMember} and {getRoleMemberCount}, make sure you perform all queries on the same block. See the following https://forum.openzeppelin.com/t/iterating-over-elements-on-enumerableset-in-openzeppelin-contracts/2296[forum post] for more information."
      },
      "getRoleMemberCount(bytes32)": {
        "details": "Returns the number of accounts that have `role`. Can be used together with {getRoleMember} to enumerate all bearers of a role."
      },
      "grantRole(bytes32,address)": {
        "details": "Grants `role` to `account`. If `account` had not been already granted `role`, emits a {RoleGranted} event. Requirements: - the caller must have ``role``'s admin role."
      },
      "hasRole(bytes32,address)": {
        "details": "Returns `true` if `account` has been granted `role`."
      },
      "isApprovedForAll(address,address)": {
        "details": "See {IERC1155-isApprovedForAll}."
      },
      "owner()": {
        "details": "Returns the address of the current owner."
      },
      "renounceOwnership()": {
        "details": "Leaves the contract without owner. It will not be possible to call `onlyOwner` functions anymore. Can only be called by the current owner. NOTE: Renouncing ownership will leave the contract without an owner, thereby removing any functionality that is only available to the owner."
      },
      "renounceRole(bytes32,address)": {
        "details": "Revokes `role` from the calling account. Roles are often managed via {grantRole} and {revokeRole}: this function's purpose is to provide a mechanism for accounts to lose their privileges if they are compromised (such as when a trusted device is misplaced). If the calling account had been revoked `role`, emits a {RoleRevoked} event. Requirements: - the caller must be `account`."
      },
      "revokeRole(bytes32,address)": {
        "details": "Revokes `role` from `account`. If `account` had been granted `role`, emits a {RoleRevoked} event. Requirements: - the caller must have ``role``'s admin role."
      },
      "safeBatchTransferFrom(address,address,uint256[],uint256[],bytes)": {
        "details": "See {IERC1155-safeBatchTransferFrom}."
      },
      "safeTransferFrom(address,address,uint256,uint256,bytes)": {
        "details": "See {IERC1155-safeTransferFrom}."
      },
      "setApprovalForAll(address,bool)": {
        "details": "See {IERC1155-setApprovalForAll}."
      },
      "totalSupply(uint256)": {
        "details": "Total amount of tokens in with a given id."
      },
      "transferOwnership(address)": {
        "details": "Transfers ownership of the contract to a new account (`newOwner`). Can only be called by the current owner."
      }
    },
    "version": 1
  },
  "userdoc": {
    "kind": "user",
    "methods": {},
    "version": 1
  }
}