{
  "contractName": "RoyaltiesV2Impl",
  "abi": [
    {
      "anonymous": false,
      "inputs": [
        {
          "indexed": false,
          "internalType": "uint256",
          "name": "tokenId",
          "type": "uint256"
        },
        {
          "components": [
            {
              "internalType": "address payable",
              "name": "account",
              "type": "address"
            },
            {
              "internalType": "uint96",
              "name": "value",
              "type": "uint96"
            }
          ],
          "indexed": false,
          "internalType": "struct LibPart.Part[]",
          "name": "royalties",
          "type": "tuple[]"
        }
      ],
      "name": "RoyaltiesSet",
      "type": "event"
    },
    {
      "inputs": [
        {
          "internalType": "uint256",
          "name": "",
          "type": "uint256"
        },
        {
          "internalType": "uint256",
          "name": "",
          "type": "uint256"
        }
      ],
      "name": "royalties",
      "outputs": [
        {
          "internalType": "address payable",
          "name": "account",
          "type": "address"
        },
        {
          "internalType": "uint96",
          "name": "value",
          "type": "uint96"
        }
      ],
      "stateMutability": "view",
      "type": "function"
    },
    {
      "inputs": [
        {
          "internalType": "uint256",
          "name": "id",
          "type": "uint256"
        }
      ],
      "name": "getRaribleV2Royalties",
      "outputs": [
        {
          "components": [
            {
              "internalType": "address payable",
              "name": "account",
              "type": "address"
            },
            {
              "internalType": "uint96",
              "name": "value",
              "type": "uint96"
            }
          ],
          "internalType": "struct LibPart.Part[]",
          "name": "",
          "type": "tuple[]"
        }
      ],
      "stateMutability": "view",
      "type": "function"
    }
  ],
  "bytecode": "0x608060405234801561001057600080fd5b5061049f806100206000396000f3fe608060405234801561001057600080fd5b50600436106100365760003560e01c80638924af741461003b578063cad96cca1461006c575b600080fd5b61005560048036038101906100509190610254565b61009c565b604051610063929190610375565b60405180910390f35b61008660048036038101906100819190610227565b610111565b604051610093919061039e565b60405180910390f35b600060205281600052604060002081815481106100b857600080fd5b90600052602060002001600091509150508060000160009054906101000a900473ffffffffffffffffffffffffffffffffffffffff16908060000160149054906101000a90046bffffffffffffffffffffffff16905082565b6060600080838152602001908152602001600020805480602002602001604051908101604052809291908181526020016000905b82821015610207578382906000526020600020016040518060400160405290816000820160009054906101000a900473ffffffffffffffffffffffffffffffffffffffff1673ffffffffffffffffffffffffffffffffffffffff1673ffffffffffffffffffffffffffffffffffffffff1681526020016000820160149054906101000a90046bffffffffffffffffffffffff166bffffffffffffffffffffffff166bffffffffffffffffffffffff168152505081526020019060010190610145565b505050509050919050565b60008135905061022181610452565b92915050565b60006020828403121561023d5761023c61044d565b5b600061024b84828501610212565b91505092915050565b6000806040838503121561026b5761026a61044d565b5b600061027985828601610212565b925050602061028a85828601610212565b9150509250929050565b60006102a08383610328565b60408301905092915050565b6102b5816103f9565b82525050565b6102c4816103f9565b82525050565b60006102d5826103d0565b6102df81856103e8565b93506102ea836103c0565b8060005b8381101561031b5781516103028882610294565b975061030d836103db565b9250506001810190506102ee565b5085935050505092915050565b60408201600082015161033e60008501826102ac565b5060208201516103516020850182610357565b50505050565b61036081610435565b82525050565b61036f81610435565b82525050565b600060408201905061038a60008301856102bb565b6103976020830184610366565b9392505050565b600060208201905081810360008301526103b881846102ca565b905092915050565b6000819050602082019050919050565b600081519050919050565b6000602082019050919050565b600082825260208201905092915050565b60006104048261040b565b9050919050565b600073ffffffffffffffffffffffffffffffffffffffff82169050919050565b6000819050919050565b60006bffffffffffffffffffffffff82169050919050565b600080fd5b61045b8161042b565b811461046657600080fd5b5056fea2646970667358221220dd15e14bb35fa1d40d933ab4a20e8d3d648b8f690068081f84d855e99203fd9064736f6c63430008060033",
  "immutableReferences": {},
  "source": "// SPDX-License-Identifier: MIT\npragma solidity ^0.8.0;\nimport \"./AbstractRoyalties.sol\";\nimport \"../RoyaltiesV2.sol\";\ncontract RoyaltiesV2Impl is AbstractRoyalties, RoyaltiesV2 {\n    function getRaribleV2Royalties(uint256 id) override external view returns (LibPart.Part[] memory) {\n        return royalties[id];\n     }\n    function _onRoyaltiesSet(uint256 _id, LibPart.Part[] memory _royalties) override internal {\n        emit RoyaltiesSet(_id, _royalties);\n     }\n}",
  "sourcePath": "/home/javi/Satoshis/contracts/rarible/royalties/contracts/impl/RoyaltiesV2Impl.sol",
  "compiler": {
    "name": "solc",
    "version": "0.8.6+commit.11564f7e.Emscripten.clang"
  },
  "schemaVersion": "3.4.3",
  "updatedAt": "2021-12-27T21:39:48.850Z",
  "devdoc": {
    "kind": "dev",
    "methods": {},
    "version": 1
  },
  "userdoc": {
    "kind": "user",
    "methods": {},
    "version": 1
  }
}