{
  "contractName": "Satoshi",
  "abi": [
    {
      "inputs": [],
      "stateMutability": "nonpayable",
      "type": "constructor"
    },
    {
      "anonymous": false,
      "inputs": [
        {
          "indexed": true,
          "internalType": "address",
          "name": "owner",
          "type": "address"
        },
        {
          "indexed": true,
          "internalType": "address",
          "name": "approved",
          "type": "address"
        },
        {
          "indexed": true,
          "internalType": "uint256",
          "name": "tokenId",
          "type": "uint256"
        }
      ],
      "name": "Approval",
      "type": "event"
    },
    {
      "anonymous": false,
      "inputs": [
        {
          "indexed": true,
          "internalType": "address",
          "name": "owner",
          "type": "address"
        },
        {
          "indexed": true,
          "internalType": "address",
          "name": "operator",
          "type": "address"
        },
        {
          "indexed": false,
          "internalType": "bool",
          "name": "approved",
          "type": "bool"
        }
      ],
      "name": "ApprovalForAll",
      "type": "event"
    },
    {
      "anonymous": false,
      "inputs": [
        {
          "indexed": true,
          "internalType": "address",
          "name": "previousOwner",
          "type": "address"
        },
        {
          "indexed": true,
          "internalType": "address",
          "name": "newOwner",
          "type": "address"
        }
      ],
      "name": "OwnershipTransferred",
      "type": "event"
    },
    {
      "anonymous": false,
      "inputs": [
        {
          "indexed": true,
          "internalType": "bytes32",
          "name": "role",
          "type": "bytes32"
        },
        {
          "indexed": true,
          "internalType": "bytes32",
          "name": "previousAdminRole",
          "type": "bytes32"
        },
        {
          "indexed": true,
          "internalType": "bytes32",
          "name": "newAdminRole",
          "type": "bytes32"
        }
      ],
      "name": "RoleAdminChanged",
      "type": "event"
    },
    {
      "anonymous": false,
      "inputs": [
        {
          "indexed": true,
          "internalType": "bytes32",
          "name": "role",
          "type": "bytes32"
        },
        {
          "indexed": true,
          "internalType": "address",
          "name": "account",
          "type": "address"
        },
        {
          "indexed": true,
          "internalType": "address",
          "name": "sender",
          "type": "address"
        }
      ],
      "name": "RoleGranted",
      "type": "event"
    },
    {
      "anonymous": false,
      "inputs": [
        {
          "indexed": true,
          "internalType": "bytes32",
          "name": "role",
          "type": "bytes32"
        },
        {
          "indexed": true,
          "internalType": "address",
          "name": "account",
          "type": "address"
        },
        {
          "indexed": true,
          "internalType": "address",
          "name": "sender",
          "type": "address"
        }
      ],
      "name": "RoleRevoked",
      "type": "event"
    },
    {
      "anonymous": false,
      "inputs": [
        {
          "indexed": false,
          "internalType": "uint256",
          "name": "tokenId",
          "type": "uint256"
        },
        {
          "components": [
            {
              "internalType": "address payable",
              "name": "account",
              "type": "address"
            },
            {
              "internalType": "uint96",
              "name": "value",
              "type": "uint96"
            }
          ],
          "indexed": false,
          "internalType": "struct LibPart.Part[]",
          "name": "royalties",
          "type": "tuple[]"
        }
      ],
      "name": "RoyaltiesSet",
      "type": "event"
    },
    {
      "anonymous": false,
      "inputs": [
        {
          "indexed": true,
          "internalType": "address",
          "name": "from",
          "type": "address"
        },
        {
          "indexed": true,
          "internalType": "address",
          "name": "to",
          "type": "address"
        },
        {
          "indexed": true,
          "internalType": "uint256",
          "name": "tokenId",
          "type": "uint256"
        }
      ],
      "name": "Transfer",
      "type": "event"
    },
    {
      "inputs": [],
      "name": "DEFAULT_ADMIN_ROLE",
      "outputs": [
        {
          "internalType": "bytes32",
          "name": "",
          "type": "bytes32"
        }
      ],
      "stateMutability": "view",
      "type": "function"
    },
    {
      "inputs": [],
      "name": "MINTER_ROLE",
      "outputs": [
        {
          "internalType": "bytes32",
          "name": "",
          "type": "bytes32"
        }
      ],
      "stateMutability": "view",
      "type": "function"
    },
    {
      "inputs": [
        {
          "internalType": "address",
          "name": "to",
          "type": "address"
        },
        {
          "internalType": "uint256",
          "name": "tokenId",
          "type": "uint256"
        }
      ],
      "name": "approve",
      "outputs": [],
      "stateMutability": "nonpayable",
      "type": "function"
    },
    {
      "inputs": [
        {
          "internalType": "address",
          "name": "owner",
          "type": "address"
        }
      ],
      "name": "balanceOf",
      "outputs": [
        {
          "internalType": "uint256",
          "name": "",
          "type": "uint256"
        }
      ],
      "stateMutability": "view",
      "type": "function"
    },
    {
      "inputs": [
        {
          "internalType": "uint256",
          "name": "tokenId",
          "type": "uint256"
        }
      ],
      "name": "getApproved",
      "outputs": [
        {
          "internalType": "address",
          "name": "",
          "type": "address"
        }
      ],
      "stateMutability": "view",
      "type": "function"
    },
    {
      "inputs": [
        {
          "internalType": "uint256",
          "name": "id",
          "type": "uint256"
        }
      ],
      "name": "getRaribleV2Royalties",
      "outputs": [
        {
          "components": [
            {
              "internalType": "address payable",
              "name": "account",
              "type": "address"
            },
            {
              "internalType": "uint96",
              "name": "value",
              "type": "uint96"
            }
          ],
          "internalType": "struct LibPart.Part[]",
          "name": "",
          "type": "tuple[]"
        }
      ],
      "stateMutability": "view",
      "type": "function"
    },
    {
      "inputs": [
        {
          "internalType": "bytes32",
          "name": "role",
          "type": "bytes32"
        }
      ],
      "name": "getRoleAdmin",
      "outputs": [
        {
          "internalType": "bytes32",
          "name": "",
          "type": "bytes32"
        }
      ],
      "stateMutability": "view",
      "type": "function"
    },
    {
      "inputs": [
        {
          "internalType": "bytes32",
          "name": "role",
          "type": "bytes32"
        },
        {
          "internalType": "uint256",
          "name": "index",
          "type": "uint256"
        }
      ],
      "name": "getRoleMember",
      "outputs": [
        {
          "internalType": "address",
          "name": "",
          "type": "address"
        }
      ],
      "stateMutability": "view",
      "type": "function"
    },
    {
      "inputs": [
        {
          "internalType": "bytes32",
          "name": "role",
          "type": "bytes32"
        }
      ],
      "name": "getRoleMemberCount",
      "outputs": [
        {
          "internalType": "uint256",
          "name": "",
          "type": "uint256"
        }
      ],
      "stateMutability": "view",
      "type": "function"
    },
    {
      "inputs": [
        {
          "internalType": "bytes32",
          "name": "role",
          "type": "bytes32"
        },
        {
          "internalType": "address",
          "name": "account",
          "type": "address"
        }
      ],
      "name": "grantRole",
      "outputs": [],
      "stateMutability": "nonpayable",
      "type": "function"
    },
    {
      "inputs": [
        {
          "internalType": "bytes32",
          "name": "role",
          "type": "bytes32"
        },
        {
          "internalType": "address",
          "name": "account",
          "type": "address"
        }
      ],
      "name": "hasRole",
      "outputs": [
        {
          "internalType": "bool",
          "name": "",
          "type": "bool"
        }
      ],
      "stateMutability": "view",
      "type": "function"
    },
    {
      "inputs": [
        {
          "internalType": "address",
          "name": "owner",
          "type": "address"
        },
        {
          "internalType": "address",
          "name": "operator",
          "type": "address"
        }
      ],
      "name": "isApprovedForAll",
      "outputs": [
        {
          "internalType": "bool",
          "name": "",
          "type": "bool"
        }
      ],
      "stateMutability": "view",
      "type": "function"
    },
    {
      "inputs": [],
      "name": "name",
      "outputs": [
        {
          "internalType": "string",
          "name": "",
          "type": "string"
        }
      ],
      "stateMutability": "view",
      "type": "function"
    },
    {
      "inputs": [],
      "name": "owner",
      "outputs": [
        {
          "internalType": "address",
          "name": "",
          "type": "address"
        }
      ],
      "stateMutability": "view",
      "type": "function"
    },
    {
      "inputs": [
        {
          "internalType": "uint256",
          "name": "tokenId",
          "type": "uint256"
        }
      ],
      "name": "ownerOf",
      "outputs": [
        {
          "internalType": "address",
          "name": "",
          "type": "address"
        }
      ],
      "stateMutability": "view",
      "type": "function"
    },
    {
      "inputs": [],
      "name": "renounceOwnership",
      "outputs": [],
      "stateMutability": "nonpayable",
      "type": "function"
    },
    {
      "inputs": [
        {
          "internalType": "bytes32",
          "name": "role",
          "type": "bytes32"
        },
        {
          "internalType": "address",
          "name": "account",
          "type": "address"
        }
      ],
      "name": "renounceRole",
      "outputs": [],
      "stateMutability": "nonpayable",
      "type": "function"
    },
    {
      "inputs": [
        {
          "internalType": "bytes32",
          "name": "role",
          "type": "bytes32"
        },
        {
          "internalType": "address",
          "name": "account",
          "type": "address"
        }
      ],
      "name": "revokeRole",
      "outputs": [],
      "stateMutability": "nonpayable",
      "type": "function"
    },
    {
      "inputs": [
        {
          "internalType": "uint256",
          "name": "",
          "type": "uint256"
        },
        {
          "internalType": "uint256",
          "name": "",
          "type": "uint256"
        }
      ],
      "name": "royalties",
      "outputs": [
        {
          "internalType": "address payable",
          "name": "account",
          "type": "address"
        },
        {
          "internalType": "uint96",
          "name": "value",
          "type": "uint96"
        }
      ],
      "stateMutability": "view",
      "type": "function"
    },
    {
      "inputs": [
        {
          "internalType": "address",
          "name": "from",
          "type": "address"
        },
        {
          "internalType": "address",
          "name": "to",
          "type": "address"
        },
        {
          "internalType": "uint256",
          "name": "tokenId",
          "type": "uint256"
        }
      ],
      "name": "safeTransferFrom",
      "outputs": [],
      "stateMutability": "nonpayable",
      "type": "function"
    },
    {
      "inputs": [
        {
          "internalType": "address",
          "name": "from",
          "type": "address"
        },
        {
          "internalType": "address",
          "name": "to",
          "type": "address"
        },
        {
          "internalType": "uint256",
          "name": "tokenId",
          "type": "uint256"
        },
        {
          "internalType": "bytes",
          "name": "_data",
          "type": "bytes"
        }
      ],
      "name": "safeTransferFrom",
      "outputs": [],
      "stateMutability": "nonpayable",
      "type": "function"
    },
    {
      "inputs": [
        {
          "internalType": "address",
          "name": "operator",
          "type": "address"
        },
        {
          "internalType": "bool",
          "name": "approved",
          "type": "bool"
        }
      ],
      "name": "setApprovalForAll",
      "outputs": [],
      "stateMutability": "nonpayable",
      "type": "function"
    },
    {
      "inputs": [],
      "name": "symbol",
      "outputs": [
        {
          "internalType": "string",
          "name": "",
          "type": "string"
        }
      ],
      "stateMutability": "view",
      "type": "function"
    },
    {
      "inputs": [
        {
          "internalType": "uint256",
          "name": "tokenId",
          "type": "uint256"
        }
      ],
      "name": "tokenURI",
      "outputs": [
        {
          "internalType": "string",
          "name": "",
          "type": "string"
        }
      ],
      "stateMutability": "view",
      "type": "function"
    },
    {
      "inputs": [
        {
          "internalType": "address",
          "name": "from",
          "type": "address"
        },
        {
          "internalType": "address",
          "name": "to",
          "type": "address"
        },
        {
          "internalType": "uint256",
          "name": "tokenId",
          "type": "uint256"
        }
      ],
      "name": "transferFrom",
      "outputs": [],
      "stateMutability": "nonpayable",
      "type": "function"
    },
    {
      "inputs": [
        {
          "internalType": "address",
          "name": "newOwner",
          "type": "address"
        }
      ],
      "name": "transferOwnership",
      "outputs": [],
      "stateMutability": "nonpayable",
      "type": "function"
    },
    {
      "stateMutability": "payable",
      "type": "receive"
    },
    {
      "inputs": [
        {
          "internalType": "address",
          "name": "toBuy",
          "type": "address"
        }
      ],
      "name": "purchaseSatoshi",
      "outputs": [],
      "stateMutability": "payable",
      "type": "function"
    },
    {
      "inputs": [
        {
          "internalType": "address",
          "name": "toBuy",
          "type": "address"
        }
      ],
      "name": "mintCollection",
      "outputs": [],
      "stateMutability": "nonpayable",
      "type": "function"
    },
    {
      "inputs": [
        {
          "internalType": "uint256",
          "name": "amount",
          "type": "uint256"
        }
      ],
      "name": "withdraw",
      "outputs": [],
      "stateMutability": "nonpayable",
      "type": "function"
    },
    {
      "inputs": [
        {
          "internalType": "address",
          "name": "addr",
          "type": "address"
        }
      ],
      "name": "alreadyMinted",
      "outputs": [
        {
          "internalType": "bool",
          "name": "",
          "type": "bool"
        }
      ],
      "stateMutability": "view",
      "type": "function"
    },
    {
      "inputs": [
        {
          "internalType": "address",
          "name": "addr",
          "type": "address"
        }
      ],
      "name": "tokensByOwner",
      "outputs": [
        {
          "internalType": "uint256[]",
          "name": "",
          "type": "uint256[]"
        }
      ],
      "stateMutability": "view",
      "type": "function"
    },
    {
      "inputs": [
        {
          "internalType": "uint256",
          "name": "id",
          "type": "uint256"
        }
      ],
      "name": "dnaOfId",
      "outputs": [
        {
          "internalType": "address",
          "name": "",
          "type": "address"
        }
      ],
      "stateMutability": "view",
      "type": "function"
    },
    {
      "inputs": [
        {
          "internalType": "address",
          "name": "_to",
          "type": "address"
        },
        {
          "internalType": "address",
          "name": "data",
          "type": "address"
        }
      ],
      "name": "mint",
      "outputs": [],
      "stateMutability": "nonpayable",
      "type": "function"
    },
    {
      "inputs": [
        {
          "internalType": "address",
          "name": "_to",
          "type": "address"
        },
        {
          "internalType": "address[]",
          "name": "data",
          "type": "address[]"
        }
      ],
      "name": "bulkMint",
      "outputs": [],
      "stateMutability": "nonpayable",
      "type": "function"
    },
    {
      "inputs": [
        {
          "internalType": "uint256",
          "name": "value",
          "type": "uint256"
        }
      ],
      "name": "setOwnAddressPrice",
      "outputs": [],
      "stateMutability": "nonpayable",
      "type": "function"
    },
    {
      "inputs": [
        {
          "internalType": "uint256",
          "name": "value",
          "type": "uint256"
        }
      ],
      "name": "setOtherAddressPrice",
      "outputs": [],
      "stateMutability": "nonpayable",
      "type": "function"
    },
    {
      "inputs": [
        {
          "internalType": "uint256",
          "name": "value",
          "type": "uint256"
        }
      ],
      "name": "setSpecialAddressTop",
      "outputs": [],
      "stateMutability": "nonpayable",
      "type": "function"
    },
    {
      "inputs": [
        {
          "internalType": "address payable",
          "name": "rAddress",
          "type": "address"
        }
      ],
      "name": "setRoyaltiesAddress",
      "outputs": [],
      "stateMutability": "nonpayable",
      "type": "function"
    },
    {
      "inputs": [
        {
          "internalType": "uint96",
          "name": "rBasicPoints",
          "type": "uint96"
        }
      ],
      "name": "setRoyaltiesBasicPoints",
      "outputs": [],
      "stateMutability": "nonpayable",
      "type": "function"
    },
    {
      "inputs": [
        {
          "internalType": "uint256",
          "name": "_tokenId",
          "type": "uint256"
        },
        {
          "internalType": "address payable",
          "name": "_royaltiesReceipientAddress",
          "type": "address"
        },
        {
          "internalType": "uint96",
          "name": "_percentageBasisPoints",
          "type": "uint96"
        }
      ],
      "name": "setRoyalties",
      "outputs": [],
      "stateMutability": "nonpayable",
      "type": "function"
    },
    {
      "inputs": [
        {
          "internalType": "uint256",
          "name": "_tokenId",
          "type": "uint256"
        },
        {
          "internalType": "uint256",
          "name": "_salePrice",
          "type": "uint256"
        }
      ],
      "name": "royaltyInfo",
      "outputs": [
        {
          "internalType": "address",
          "name": "receiver",
          "type": "address"
        },
        {
          "internalType": "uint256",
          "name": "royaltyAmount",
          "type": "uint256"
        }
      ],
      "stateMutability": "view",
      "type": "function"
    },
    {
      "inputs": [
        {
          "internalType": "bytes4",
          "name": "interfaceId",
          "type": "bytes4"
        }
      ],
      "name": "supportsInterface",
      "outputs": [
        {
          "internalType": "bool",
          "name": "",
          "type": "bool"
        }
      ],
      "stateMutability": "view",
      "type": "function"
    }
  ],
  "bytecode": "0x6080604052674563918244f4000060105568015af1d78b58c4000060115561ffff6012553480156200003057600080fd5b506040518060400160405280600e81526020017f4d79204f776e205361746f7368690000000000000000000000000000000000008152506040518060400160405280600381526020017f4d4f5300000000000000000000000000000000000000000000000000000000008152508160009080519060200190620000b59291906200052e565b508060019080519060200190620000ce9291906200052e565b505050620000f1620000e5620001d060201b60201c565b620001d860201b60201c565b620001156000801b62000109620001d060201b60201c565b6200029e60201b60201c565b620001567f9f2df0fed2c77648de5860a4cc508cd0818c85b8b8a1ab4ceeef8d981c8956a66200014a620001d060201b60201c565b6200029e60201b60201c565b30600e60006101000a81548173ffffffffffffffffffffffffffffffffffffffff021916908373ffffffffffffffffffffffffffffffffffffffff1602179055506101f4600e60146101000a8154816bffffffffffffffffffffffff02191690836bffffffffffffffffffffffff16021790555062000643565b600033905090565b6000600860009054906101000a900473ffffffffffffffffffffffffffffffffffffffff16905081600860006101000a81548173ffffffffffffffffffffffffffffffffffffffff021916908373ffffffffffffffffffffffffffffffffffffffff1602179055508173ffffffffffffffffffffffffffffffffffffffff168173ffffffffffffffffffffffffffffffffffffffff167f8be0079c531659141344cd1fd0a4f28419497f9722a3daafe3b4186f6b6457e060405160405180910390a35050565b620002b08282620002b460201b60201c565b5050565b620002cb8282620002fc60201b620022d51760201c565b620002f78160076000858152602001908152602001600020620003ee60201b620023b61790919060201c565b505050565b6200030e82826200042660201b60201c565b620003ea5760016006600084815260200190815260200160002060000160008373ffffffffffffffffffffffffffffffffffffffff1673ffffffffffffffffffffffffffffffffffffffff16815260200190815260200160002060006101000a81548160ff0219169083151502179055506200038f620001d060201b60201c565b73ffffffffffffffffffffffffffffffffffffffff168173ffffffffffffffffffffffffffffffffffffffff16837f2f8788117e7eff1d82e926ec794901d17c78024a50270940304540a733656f0d60405160405180910390a45b5050565b60006200041e836000018373ffffffffffffffffffffffffffffffffffffffff1660001b6200049160201b60201c565b905092915050565b60006006600084815260200190815260200160002060000160008373ffffffffffffffffffffffffffffffffffffffff1673ffffffffffffffffffffffffffffffffffffffff16815260200190815260200160002060009054906101000a900460ff16905092915050565b6000620004a583836200050b60201b60201c565b6200050057826000018290806001815401808255809150506001900390600052602060002001600090919091909150558260000180549050836001016000848152602001908152602001600020819055506001905062000505565b600090505b92915050565b600080836001016000848152602001908152602001600020541415905092915050565b8280546200053c90620005de565b90600052602060002090601f016020900481019282620005605760008555620005ac565b82601f106200057b57805160ff1916838001178555620005ac565b82800160010185558215620005ac579182015b82811115620005ab5782518255916020019190600101906200058e565b5b509050620005bb9190620005bf565b5090565b5b80821115620005da576000816000905550600101620005c0565b5090565b60006002820490506001821680620005f757607f821691505b602082108114156200060e576200060d62000614565b5b50919050565b7f4e487b7100000000000000000000000000000000000000000000000000000000600052602260045260246000fd5b615ff180620006536000396000f3fe6080604052600436106102555760003560e01c80638bba8b8a11610139578063c1dbfcab116100b6578063d547741f1161007a578063d547741f1461094b578063dc95c4a714610974578063dccfc7db1461099d578063e985e9c5146109b9578063ee1fe2ad146109f6578063f2fde38b14610a1f5761025c565b8063c1dbfcab14610840578063c87b56dd14610869578063ca15c873146108a6578063cad96cca146108e3578063d5391393146109205761025c565b8063975c8f42116100fd578063975c8f421461075d578063a217fddf14610786578063a22cb465146107b1578063b7082ead146107da578063b88d4fde146108175761025c565b80638bba8b8a146106645780638da5cb5b1461068d5780639010d07c146106b857806391d14854146106f557806395d89b41146107325761025c565b80632a55205a116101d257806342842e0e1161019657806342842e0e146105435780636352211e1461056c57806370a08231146105a9578063715018a6146105e657806379107caf146105fd5780638924af74146106265761025c565b80632a55205a146104615780632e1a7d4d1461049f5780632f2ff15d146104c857806336568abe146104f15780633ebbad2e1461051a5761025c565b80630d381a28116102195780630d381a281461036c57806311fdb52e146103a9578063143094db146103d257806323b872dd146103fb578063248a9ca3146104245761025c565b806301ffc9a71461026157806306fdde031461029e578063081812fc146102c9578063095ea7b3146103065780630a398b881461032f5761025c565b3661025c57005b600080fd5b34801561026d57600080fd5b5061028860048036038101906102839190614665565b610a48565b6040516102959190614efd565b60405180910390f35b3480156102aa57600080fd5b506102b3610b07565b6040516102c09190614f33565b60405180910390f35b3480156102d557600080fd5b506102f060048036038101906102eb91906146bf565b610b99565b6040516102fd9190614e00565b60405180910390f35b34801561031257600080fd5b5061032d60048036038101906103289190614578565b610c1e565b005b34801561033b57600080fd5b506103566004803603810190610351919061436c565b610d36565b6040516103639190614efd565b60405180910390f35b34801561037857600080fd5b50610393600480360381019061038e919061436c565b610d8c565b6040516103a09190614edb565b60405180910390f35b3480156103b557600080fd5b506103d060048036038101906103cb919061477f565b610e23565b005b3480156103de57600080fd5b506103f960048036038101906103f491906146ec565b610ed3565b005b34801561040757600080fd5b50610422600480360381019061041d9190614406565b61104e565b005b34801561043057600080fd5b5061044b600480360381019061044691906145b8565b6110ae565b6040516104589190614f18565b60405180910390f35b34801561046d57600080fd5b506104886004803603810190610483919061473f565b6110ce565b604051610496929190614e90565b60405180910390f35b3480156104ab57600080fd5b506104c660048036038101906104c191906146bf565b611258565b005b3480156104d457600080fd5b506104ef60048036038101906104ea91906145e5565b6112a2565b005b3480156104fd57600080fd5b50610518600480360381019061051391906145e5565b6112cb565b005b34801561052657600080fd5b50610541600480360381019061053c919061436c565b61134e565b005b34801561054f57600080fd5b5061056a60048036038101906105659190614406565b6114bf565b005b34801561057857600080fd5b50610593600480360381019061058e91906146bf565b6114df565b6040516105a09190614e00565b60405180910390f35b3480156105b557600080fd5b506105d060048036038101906105cb919061436c565b611591565b6040516105dd9190615275565b60405180910390f35b3480156105f257600080fd5b506105fb611649565b005b34801561060957600080fd5b50610624600480360381019061061f91906146bf565b6116d1565b005b34801561063257600080fd5b5061064d6004803603810190610648919061473f565b611757565b60405161065b929190614e1b565b60405180910390f35b34801561067057600080fd5b5061068b600480360381019061068691906146bf565b6117cc565b005b34801561069957600080fd5b506106a2611852565b6040516106af9190614e00565b60405180910390f35b3480156106c457600080fd5b506106df60048036038101906106da9190614625565b61187c565b6040516106ec9190614e00565b60405180910390f35b34801561070157600080fd5b5061071c600480360381019061071791906145e5565b6118ab565b6040516107299190614efd565b60405180910390f35b34801561073e57600080fd5b50610747611916565b6040516107549190614f33565b60405180910390f35b34801561076957600080fd5b50610784600480360381019061077f91906146bf565b6119a8565b005b34801561079257600080fd5b5061079b611a2e565b6040516107a89190614f18565b60405180910390f35b3480156107bd57600080fd5b506107d860048036038101906107d39190614538565b611a35565b005b3480156107e657600080fd5b5061080160048036038101906107fc91906146bf565b611a4b565b60405161080e9190614e00565b60405180910390f35b34801561082357600080fd5b5061083e60048036038101906108399190614459565b611a88565b005b34801561084c57600080fd5b50610867600480360381019061086291906144dc565b611aea565b005b34801561087557600080fd5b50610890600480360381019061088b91906146bf565b611ba2565b60405161089d9190614f33565b60405180910390f35b3480156108b257600080fd5b506108cd60048036038101906108c891906145b8565b611c49565b6040516108da9190615275565b60405180910390f35b3480156108ef57600080fd5b5061090a600480360381019061090591906146bf565b611c6d565b6040516109179190614eb9565b60405180910390f35b34801561092c57600080fd5b50610935611d6f565b6040516109429190614f18565b60405180910390f35b34801561095757600080fd5b50610972600480360381019061096d91906145e5565b611d93565b005b34801561098057600080fd5b5061099b60048036038101906109969190614399565b611dbc565b005b6109b760048036038101906109b2919061436c565b611e7c565b005b3480156109c557600080fd5b506109e060048036038101906109db91906143c6565b611ff4565b6040516109ed9190614efd565b60405180910390f35b348015610a0257600080fd5b50610a1d6004803603810190610a1891906143c6565b612088565b005b348015610a2b57600080fd5b50610a466004803603810190610a41919061436c565b6121dd565b005b60006344c74bcc60e01b7bffffffffffffffffffffffffffffffffffffffffffffffffffffffff1916827bffffffffffffffffffffffffffffffffffffffffffffffffffffffff19161415610aa05760019050610b02565b632a55205a60e01b7bffffffffffffffffffffffffffffffffffffffffffffffffffffffff1916827bffffffffffffffffffffffffffffffffffffffffffffffffffffffff19161415610af65760019050610b02565b610aff826123e6565b90505b919050565b606060008054610b1690615620565b80601f0160208091040260200160405190810160405280929190818152602001828054610b4290615620565b8015610b8f5780601f10610b6457610100808354040283529160200191610b8f565b820191906000526020600020905b815481529060010190602001808311610b7257829003601f168201915b5050505050905090565b6000610ba482612460565b610be3576040517f08c379a0000000000000000000000000000000000000000000000000000000008152600401610bda90615175565b60405180910390fd5b6004600083815260200190815260200160002060009054906101000a900473ffffffffffffffffffffffffffffffffffffffff169050919050565b6000610c29826114df565b90508073ffffffffffffffffffffffffffffffffffffffff168373ffffffffffffffffffffffffffffffffffffffff161415610c9a576040517f08c379a0000000000000000000000000000000000000000000000000000000008152600401610c91906151f5565b60405180910390fd5b8073ffffffffffffffffffffffffffffffffffffffff16610cb96124cc565b73ffffffffffffffffffffffffffffffffffffffff161480610ce85750610ce781610ce26124cc565b611ff4565b5b610d27576040517f08c379a0000000000000000000000000000000000000000000000000000000008152600401610d1e906150d5565b60405180910390fd5b610d3183836124d4565b505050565b6000600b60008373ffffffffffffffffffffffffffffffffffffffff1673ffffffffffffffffffffffffffffffffffffffff16815260200190815260200160002060009054906101000a900460ff169050919050565b6060600d60008373ffffffffffffffffffffffffffffffffffffffff1673ffffffffffffffffffffffffffffffffffffffff168152602001908152602001600020805480602002602001604051908101604052809291908181526020018280548015610e1757602002820191906000526020600020905b815481526020019060010190808311610e03575b50505050509050919050565b610e2b6124cc565b73ffffffffffffffffffffffffffffffffffffffff16610e49611852565b73ffffffffffffffffffffffffffffffffffffffff1614610e9f576040517f08c379a0000000000000000000000000000000000000000000000000000000008152600401610e9690615195565b60405180910390fd5b80600e60146101000a8154816bffffffffffffffffffffffff02191690836bffffffffffffffffffffffff16021790555050565b610edb6124cc565b73ffffffffffffffffffffffffffffffffffffffff16610ef9611852565b73ffffffffffffffffffffffffffffffffffffffff1614610f4f576040517f08c379a0000000000000000000000000000000000000000000000000000000008152600401610f4690615195565b60405180910390fd5b6000600167ffffffffffffffff811115610f6c57610f6b6157e8565b5b604051908082528060200260200182016040528015610fa557816020015b610f92614178565b815260200190600190039081610f8a5790505b5090508181600081518110610fbd57610fbc6157b9565b5b6020026020010151602001906bffffffffffffffffffffffff1690816bffffffffffffffffffffffff1681525050828160008151811061100057610fff6157b9565b5b60200260200101516000019073ffffffffffffffffffffffffffffffffffffffff16908173ffffffffffffffffffffffffffffffffffffffff1681525050611048848261258d565b50505050565b61105f6110596124cc565b8261287d565b61109e576040517f08c379a000000000000000000000000000000000000000000000000000000000815260040161109590615215565b60405180910390fd5b6110a983838361295b565b505050565b600060066000838152602001908152602001600020600101549050919050565b600080600060096000868152602001908152602001600020805480602002602001604051908101604052809291908181526020016000905b828210156111c8578382906000526020600020016040518060400160405290816000820160009054906101000a900473ffffffffffffffffffffffffffffffffffffffff1673ffffffffffffffffffffffffffffffffffffffff1673ffffffffffffffffffffffffffffffffffffffff1681526020016000820160149054906101000a90046bffffffffffffffffffffffff166bffffffffffffffffffffffff166bffffffffffffffffffffffff168152505081526020019060010190611106565b50505050905060008151111561124857806000815181106111ec576111eb6157b9565b5b6020026020010151600001516127108260008151811061120f5761120e6157b9565b5b6020026020010151602001516bffffffffffffffffffffffff1686611234919061547e565b61123e919061544d565b9250925050611251565b60008092509250505b9250929050565b3373ffffffffffffffffffffffffffffffffffffffff166108fc829081150290604051600060405180830381858888f1935050505015801561129e573d6000803e3d6000fd5b5050565b6112ab826110ae565b6112bc816112b76124cc565b612bb7565b6112c68383612c54565b505050565b6112d36124cc565b73ffffffffffffffffffffffffffffffffffffffff168173ffffffffffffffffffffffffffffffffffffffff1614611340576040517f08c379a000000000000000000000000000000000000000000000000000000000815260040161133790615255565b60405180910390fd5b61134a8282612c88565b5050565b6113566124cc565b73ffffffffffffffffffffffffffffffffffffffff16611374611852565b73ffffffffffffffffffffffffffffffffffffffff16146113ca576040517f08c379a00000000000000000000000000000000000000000000000000000000081526004016113c190615195565b60405180910390fd5b600b60008273ffffffffffffffffffffffffffffffffffffffff1673ffffffffffffffffffffffffffffffffffffffff16815260200190815260200160002060009054906101000a900460ff1615611457576040517f08c379a000000000000000000000000000000000000000000000000000000000815260040161144e90614f75565b60405180910390fd5b6012548173ffffffffffffffffffffffffffffffffffffffff1611156114b2576040517f08c379a00000000000000000000000000000000000000000000000000000000081526004016114a990615155565b60405180910390fd5b6114bc3382612088565b50565b6114da83838360405180602001604052806000815250611a88565b505050565b6000806002600084815260200190815260200160002060009054906101000a900473ffffffffffffffffffffffffffffffffffffffff169050600073ffffffffffffffffffffffffffffffffffffffff168173ffffffffffffffffffffffffffffffffffffffff161415611588576040517f08c379a000000000000000000000000000000000000000000000000000000000815260040161157f90615115565b60405180910390fd5b80915050919050565b60008073ffffffffffffffffffffffffffffffffffffffff168273ffffffffffffffffffffffffffffffffffffffff161415611602576040517f08c379a00000000000000000000000000000000000000000000000000000000081526004016115f9906150f5565b60405180910390fd5b600360008373ffffffffffffffffffffffffffffffffffffffff1673ffffffffffffffffffffffffffffffffffffffff168152602001908152602001600020549050919050565b6116516124cc565b73ffffffffffffffffffffffffffffffffffffffff1661166f611852565b73ffffffffffffffffffffffffffffffffffffffff16146116c5576040517f08c379a00000000000000000000000000000000000000000000000000000000081526004016116bc90615195565b60405180910390fd5b6116cf6000612cbc565b565b6116d96124cc565b73ffffffffffffffffffffffffffffffffffffffff166116f7611852565b73ffffffffffffffffffffffffffffffffffffffff161461174d576040517f08c379a000000000000000000000000000000000000000000000000000000000815260040161174490615195565b60405180910390fd5b8060108190555050565b6009602052816000526040600020818154811061177357600080fd5b90600052602060002001600091509150508060000160009054906101000a900473ffffffffffffffffffffffffffffffffffffffff16908060000160149054906101000a90046bffffffffffffffffffffffff16905082565b6117d46124cc565b73ffffffffffffffffffffffffffffffffffffffff166117f2611852565b73ffffffffffffffffffffffffffffffffffffffff1614611848576040517f08c379a000000000000000000000000000000000000000000000000000000000815260040161183f90615195565b60405180910390fd5b8060128190555050565b6000600860009054906101000a900473ffffffffffffffffffffffffffffffffffffffff16905090565b60006118a38260076000868152602001908152602001600020612d8290919063ffffffff16565b905092915050565b60006006600084815260200190815260200160002060000160008373ffffffffffffffffffffffffffffffffffffffff1673ffffffffffffffffffffffffffffffffffffffff16815260200190815260200160002060009054906101000a900460ff16905092915050565b60606001805461192590615620565b80601f016020809104026020016040519081016040528092919081815260200182805461195190615620565b801561199e5780601f106119735761010080835404028352916020019161199e565b820191906000526020600020905b81548152906001019060200180831161198157829003601f168201915b5050505050905090565b6119b06124cc565b73ffffffffffffffffffffffffffffffffffffffff166119ce611852565b73ffffffffffffffffffffffffffffffffffffffff1614611a24576040517f08c379a0000000000000000000000000000000000000000000000000000000008152600401611a1b90615195565b60405180910390fd5b8060118190555050565b6000801b81565b611a47611a406124cc565b8383612d9c565b5050565b6000600c600083815260200190815260200160002060009054906101000a900473ffffffffffffffffffffffffffffffffffffffff169050919050565b611a99611a936124cc565b8361287d565b611ad8576040517f08c379a0000000000000000000000000000000000000000000000000000000008152600401611acf90615215565b60405180910390fd5b611ae484848484612f09565b50505050565b611b1b7f9f2df0fed2c77648de5860a4cc508cd0818c85b8b8a1ab4ceeef8d981c8956a6611b166124cc565b6118ab565b611b5a576040517f08c379a0000000000000000000000000000000000000000000000000000000008152600401611b5190615095565b60405180910390fd5b60005b8151811015611b9d57611b8a83838381518110611b7d57611b7c6157b9565b5b6020026020010151612088565b8080611b9590615683565b915050611b5d565b505050565b6060611bad82612460565b611bec576040517f08c379a0000000000000000000000000000000000000000000000000000000008152600401611be3906151d5565b60405180910390fd5b6000611bf6612f65565b90506000815111611c165760405180602001604052806000815250611c41565b80611c2084612fa2565b604051602001611c31929190614da2565b6040516020818303038152906040525b915050919050565b6000611c6660076000848152602001908152602001600020613103565b9050919050565b606060096000838152602001908152602001600020805480602002602001604051908101604052809291908181526020016000905b82821015611d64578382906000526020600020016040518060400160405290816000820160009054906101000a900473ffffffffffffffffffffffffffffffffffffffff1673ffffffffffffffffffffffffffffffffffffffff1673ffffffffffffffffffffffffffffffffffffffff1681526020016000820160149054906101000a90046bffffffffffffffffffffffff166bffffffffffffffffffffffff166bffffffffffffffffffffffff168152505081526020019060010190611ca2565b505050509050919050565b7f9f2df0fed2c77648de5860a4cc508cd0818c85b8b8a1ab4ceeef8d981c8956a681565b611d9c826110ae565b611dad81611da86124cc565b612bb7565b611db78383612c88565b505050565b611dc46124cc565b73ffffffffffffffffffffffffffffffffffffffff16611de2611852565b73ffffffffffffffffffffffffffffffffffffffff1614611e38576040517f08c379a0000000000000000000000000000000000000000000000000000000008152600401611e2f90615195565b60405180910390fd5b80600e60006101000a81548173ffffffffffffffffffffffffffffffffffffffff021916908373ffffffffffffffffffffffffffffffffffffffff16021790555050565b600b60008273ffffffffffffffffffffffffffffffffffffffff1673ffffffffffffffffffffffffffffffffffffffff16815260200190815260200160002060009054906101000a900460ff1615611f09576040517f08c379a0000000000000000000000000000000000000000000000000000000008152600401611f0090614f75565b60405180910390fd5b6012548173ffffffffffffffffffffffffffffffffffffffff1611611f63576040517f08c379a0000000000000000000000000000000000000000000000000000000008152600401611f5a90615015565b60405180910390fd5b3373ffffffffffffffffffffffffffffffffffffffff168173ffffffffffffffffffffffffffffffffffffffff1614611fa157601154341015611fa8565b6010543410155b611fe7576040517f08c379a0000000000000000000000000000000000000000000000000000000008152600401611fde90614ff5565b60405180910390fd5b611ff13382612088565b50565b6000600560008473ffffffffffffffffffffffffffffffffffffffff1673ffffffffffffffffffffffffffffffffffffffff16815260200190815260200160002060008373ffffffffffffffffffffffffffffffffffffffff1673ffffffffffffffffffffffffffffffffffffffff16815260200190815260200160002060009054906101000a900460ff16905092915050565b6120b97f9f2df0fed2c77648de5860a4cc508cd0818c85b8b8a1ab4ceeef8d981c8956a66120b46124cc565b6118ab565b6120f8576040517f08c379a00000000000000000000000000000000000000000000000000000000081526004016120ef90615095565b60405180910390fd5b600b60008273ffffffffffffffffffffffffffffffffffffffff1673ffffffffffffffffffffffffffffffffffffffff16815260200190815260200160002060009054906101000a900460ff1615612185576040517f08c379a000000000000000000000000000000000000000000000000000000000815260040161217c90614f75565b60405180910390fd5b80600f60006101000a81548173ffffffffffffffffffffffffffffffffffffffff021916908373ffffffffffffffffffffffffffffffffffffffff1602179055506121d9826121d4600a613118565b613126565b5050565b6121e56124cc565b73ffffffffffffffffffffffffffffffffffffffff16612203611852565b73ffffffffffffffffffffffffffffffffffffffff1614612259576040517f08c379a000000000000000000000000000000000000000000000000000000000815260040161225090615195565b60405180910390fd5b600073ffffffffffffffffffffffffffffffffffffffff168173ffffffffffffffffffffffffffffffffffffffff1614156122c9576040517f08c379a00000000000000000000000000000000000000000000000000000000081526004016122c090614fb5565b60405180910390fd5b6122d281612cbc565b50565b6122df82826118ab565b6123b25760016006600084815260200190815260200160002060000160008373ffffffffffffffffffffffffffffffffffffffff1673ffffffffffffffffffffffffffffffffffffffff16815260200190815260200160002060006101000a81548160ff0219169083151502179055506123576124cc565b73ffffffffffffffffffffffffffffffffffffffff168173ffffffffffffffffffffffffffffffffffffffff16837f2f8788117e7eff1d82e926ec794901d17c78024a50270940304540a733656f0d60405160405180910390a45b5050565b60006123de836000018373ffffffffffffffffffffffffffffffffffffffff1660001b6132f4565b905092915050565b60007f5a05180f000000000000000000000000000000000000000000000000000000007bffffffffffffffffffffffffffffffffffffffffffffffffffffffff1916827bffffffffffffffffffffffffffffffffffffffffffffffffffffffff19161480612459575061245882613364565b5b9050919050565b60008073ffffffffffffffffffffffffffffffffffffffff166002600084815260200190815260200160002060009054906101000a900473ffffffffffffffffffffffffffffffffffffffff1673ffffffffffffffffffffffffffffffffffffffff1614159050919050565b600033905090565b816004600083815260200190815260200160002060006101000a81548173ffffffffffffffffffffffffffffffffffffffff021916908373ffffffffffffffffffffffffffffffffffffffff160217905550808273ffffffffffffffffffffffffffffffffffffffff16612547836114df565b73ffffffffffffffffffffffffffffffffffffffff167f8c5be1e5ebec7d5bd14f71427d1e84f3dd0314c0f7b2291e5b200ac8c7c3b92560405160405180910390a45050565b60005b815181101561286e57600073ffffffffffffffffffffffffffffffffffffffff168282815181106125c4576125c36157b9565b5b60200260200101516000015173ffffffffffffffffffffffffffffffffffffffff161415612627576040517f08c379a000000000000000000000000000000000000000000000000000000000815260040161261e90615235565b60405180910390fd5b600082828151811061263c5761263b6157b9565b5b6020026020010151602001516bffffffffffffffffffffffff161415612697576040517f08c379a000000000000000000000000000000000000000000000000000000000815260040161268e906150b5565b60405180910390fd5b60006009600085815260200190815260200160002080549050141561278e57600960008481526020019081526020016000208282815181106126dc576126db6157b9565b5b60200260200101519080600181540180825580915050600190039060005260206000200160009091909190915060008201518160000160006101000a81548173ffffffffffffffffffffffffffffffffffffffff021916908373ffffffffffffffffffffffffffffffffffffffff16021790555060208201518160000160146101000a8154816bffffffffffffffffffffffff02191690836bffffffffffffffffffffffff160217905550505061285b565b8181815181106127a1576127a06157b9565b5b6020026020010151600960008581526020019081526020016000206000815481106127cf576127ce6157b9565b5b9060005260206000200160008201518160000160006101000a81548173ffffffffffffffffffffffffffffffffffffffff021916908373ffffffffffffffffffffffffffffffffffffffff16021790555060208201518160000160146101000a8154816bffffffffffffffffffffffff02191690836bffffffffffffffffffffffff1602179055509050505b808061286690615683565b915050612590565b5061287982826133de565b5050565b600061288882612460565b6128c7576040517f08c379a00000000000000000000000000000000000000000000000000000000081526004016128be90615075565b60405180910390fd5b60006128d2836114df565b90508073ffffffffffffffffffffffffffffffffffffffff168473ffffffffffffffffffffffffffffffffffffffff16148061294157508373ffffffffffffffffffffffffffffffffffffffff1661292984610b99565b73ffffffffffffffffffffffffffffffffffffffff16145b8061295257506129518185611ff4565b5b91505092915050565b8273ffffffffffffffffffffffffffffffffffffffff1661297b826114df565b73ffffffffffffffffffffffffffffffffffffffff16146129d1576040517f08c379a00000000000000000000000000000000000000000000000000000000081526004016129c8906151b5565b60405180910390fd5b600073ffffffffffffffffffffffffffffffffffffffff168273ffffffffffffffffffffffffffffffffffffffff161415612a41576040517f08c379a0000000000000000000000000000000000000000000000000000000008152600401612a3890615035565b60405180910390fd5b612a4c83838361341b565b612a576000826124d4565b6001600360008573ffffffffffffffffffffffffffffffffffffffff1673ffffffffffffffffffffffffffffffffffffffff1681526020019081526020016000206000828254612aa791906154d8565b925050819055506001600360008473ffffffffffffffffffffffffffffffffffffffff1673ffffffffffffffffffffffffffffffffffffffff1681526020019081526020016000206000828254612afe91906153f7565b92505081905550816002600083815260200190815260200160002060006101000a81548173ffffffffffffffffffffffffffffffffffffffff021916908373ffffffffffffffffffffffffffffffffffffffff160217905550808273ffffffffffffffffffffffffffffffffffffffff168473ffffffffffffffffffffffffffffffffffffffff167fddf252ad1be2c89b69c2b068fc378daa952ba7f163c4a11628f55a4df523b3ef60405160405180910390a4505050565b612bc182826118ab565b612c5057612be68173ffffffffffffffffffffffffffffffffffffffff1660146136b5565b612bf48360001c60206136b5565b604051602001612c05929190614dc6565b6040516020818303038152906040526040517f08c379a0000000000000000000000000000000000000000000000000000000008152600401612c479190614f33565b60405180910390fd5b5050565b612c5e82826122d5565b612c8381600760008581526020019081526020016000206123b690919063ffffffff16565b505050565b612c9282826138f1565b612cb781600760008581526020019081526020016000206139d390919063ffffffff16565b505050565b6000600860009054906101000a900473ffffffffffffffffffffffffffffffffffffffff16905081600860006101000a81548173ffffffffffffffffffffffffffffffffffffffff021916908373ffffffffffffffffffffffffffffffffffffffff1602179055508173ffffffffffffffffffffffffffffffffffffffff168173ffffffffffffffffffffffffffffffffffffffff167f8be0079c531659141344cd1fd0a4f28419497f9722a3daafe3b4186f6b6457e060405160405180910390a35050565b6000612d918360000183613a03565b60001c905092915050565b8173ffffffffffffffffffffffffffffffffffffffff168373ffffffffffffffffffffffffffffffffffffffff161415612e0b576040517f08c379a0000000000000000000000000000000000000000000000000000000008152600401612e0290615055565b60405180910390fd5b80600560008573ffffffffffffffffffffffffffffffffffffffff1673ffffffffffffffffffffffffffffffffffffffff16815260200190815260200160002060008473ffffffffffffffffffffffffffffffffffffffff1673ffffffffffffffffffffffffffffffffffffffff16815260200190815260200160002060006101000a81548160ff0219169083151502179055508173ffffffffffffffffffffffffffffffffffffffff168373ffffffffffffffffffffffffffffffffffffffff167f17307eab39ab6107e8899845ad3d59bd9653f200f220920489ca2b5937696c3183604051612efc9190614efd565b60405180910390a3505050565b612f1484848461295b565b612f2084848484613a2e565b612f5f576040517f08c379a0000000000000000000000000000000000000000000000000000000008152600401612f5690614f95565b60405180910390fd5b50505050565b60606040518060400160405280601c81526020017f687474703a2f2f6e66742e6d796f776e7361746f7368692e636f6d2f00000000815250905090565b60606000821415612fea576040518060400160405280600181526020017f300000000000000000000000000000000000000000000000000000000000000081525090506130fe565b600082905060005b6000821461301c57808061300590615683565b915050600a82613015919061544d565b9150612ff2565b60008167ffffffffffffffff811115613038576130376157e8565b5b6040519080825280601f01601f19166020018201604052801561306a5781602001600182028036833780820191505090505b5090505b600085146130f75760018261308391906154d8565b9150600a8561309291906156cc565b603061309e91906153f7565b60f81b8183815181106130b4576130b36157b9565b5b60200101907effffffffffffffffffffffffffffffffffffffffffffffffffffffffffffff1916908160001a905350600a856130f0919061544d565b945061306e565b8093505050505b919050565b600061311182600001613bc5565b9050919050565b600081600001549050919050565b600073ffffffffffffffffffffffffffffffffffffffff168273ffffffffffffffffffffffffffffffffffffffff161415613196576040517f08c379a000000000000000000000000000000000000000000000000000000000815260040161318d90615135565b60405180910390fd5b61319f81612460565b156131df576040517f08c379a00000000000000000000000000000000000000000000000000000000081526004016131d690614fd5565b60405180910390fd5b6131eb6000838361341b565b6001600360008473ffffffffffffffffffffffffffffffffffffffff1673ffffffffffffffffffffffffffffffffffffffff168152602001908152602001600020600082825461323b91906153f7565b92505081905550816002600083815260200190815260200160002060006101000a81548173ffffffffffffffffffffffffffffffffffffffff021916908373ffffffffffffffffffffffffffffffffffffffff160217905550808273ffffffffffffffffffffffffffffffffffffffff16600073ffffffffffffffffffffffffffffffffffffffff167fddf252ad1be2c89b69c2b068fc378daa952ba7f163c4a11628f55a4df523b3ef60405160405180910390a45050565b60006133008383613bd6565b61335957826000018290806001815401808255809150506001900390600052602060002001600090919091909150558260000180549050836001016000848152602001908152602001600020819055506001905061335e565b600090505b92915050565b60007f7965db0b000000000000000000000000000000000000000000000000000000007bffffffffffffffffffffffffffffffffffffffffffffffffffffffff1916827bffffffffffffffffffffffffffffffffffffffffffffffffffffffff191614806133d757506133d682613bf9565b5b9050919050565b7f3fa96d7b6bcbfe71ef171666d84db3cf52fa2d1c8afdb1cc8e486177f208b7df828260405161340f929190615290565b60405180910390a15050565b600073ffffffffffffffffffffffffffffffffffffffff168373ffffffffffffffffffffffffffffffffffffffff1614156135fa57600f60009054906101000a900473ffffffffffffffffffffffffffffffffffffffff16600c600083815260200190815260200160002060006101000a81548173ffffffffffffffffffffffffffffffffffffffff021916908373ffffffffffffffffffffffffffffffffffffffff1602179055506001600b6000600f60009054906101000a900473ffffffffffffffffffffffffffffffffffffffff1673ffffffffffffffffffffffffffffffffffffffff1673ffffffffffffffffffffffffffffffffffffffff16815260200190815260200160002060006101000a81548160ff021916908315150217905550613548600a613cdb565b61358f81600e60009054906101000a900473ffffffffffffffffffffffffffffffffffffffff16600e60149054906101000a90046bffffffffffffffffffffffff16610ed3565b600d60008373ffffffffffffffffffffffffffffffffffffffff1673ffffffffffffffffffffffffffffffffffffffff1681526020019081526020016000208190806001815401808255809150506001900390600052602060002001600090919091909150556136b0565b600073ffffffffffffffffffffffffffffffffffffffff168273ffffffffffffffffffffffffffffffffffffffff16141561363e576136398382613cf1565b6136af565b600d60008373ffffffffffffffffffffffffffffffffffffffff1673ffffffffffffffffffffffffffffffffffffffff1681526020019081526020016000208190806001815401808255809150506001900390600052602060002001600090919091909150556136ae8382613cf1565b5b5b505050565b6060600060028360026136c8919061547e565b6136d291906153f7565b67ffffffffffffffff8111156136eb576136ea6157e8565b5b6040519080825280601f01601f19166020018201604052801561371d5781602001600182028036833780820191505090505b5090507f300000000000000000000000000000000000000000000000000000000000000081600081518110613755576137546157b9565b5b60200101907effffffffffffffffffffffffffffffffffffffffffffffffffffffffffffff1916908160001a9053507f7800000000000000000000000000000000000000000000000000000000000000816001815181106137b9576137b86157b9565b5b60200101907effffffffffffffffffffffffffffffffffffffffffffffffffffffffffffff1916908160001a905350600060018460026137f9919061547e565b61380391906153f7565b90505b60018111156138a3577f3031323334353637383961626364656600000000000000000000000000000000600f861660108110613845576138446157b9565b5b1a60f81b82828151811061385c5761385b6157b9565b5b60200101907effffffffffffffffffffffffffffffffffffffffffffffffffffffffffffff1916908160001a905350600485901c94508061389c906155f6565b9050613806565b50600084146138e7576040517f08c379a00000000000000000000000000000000000000000000000000000000081526004016138de90614f55565b60405180910390fd5b8091505092915050565b6138fb82826118ab565b156139cf5760006006600084815260200190815260200160002060000160008373ffffffffffffffffffffffffffffffffffffffff1673ffffffffffffffffffffffffffffffffffffffff16815260200190815260200160002060006101000a81548160ff0219169083151502179055506139746124cc565b73ffffffffffffffffffffffffffffffffffffffff168173ffffffffffffffffffffffffffffffffffffffff16837ff6391f5c32d9c69d2a47ea670b442974b53935d1edc7fd64eb21e047a839171b60405160405180910390a45b5050565b60006139fb836000018373ffffffffffffffffffffffffffffffffffffffff1660001b613ebd565b905092915050565b6000826000018281548110613a1b57613a1a6157b9565b5b9060005260206000200154905092915050565b6000613a4f8473ffffffffffffffffffffffffffffffffffffffff16613fd1565b15613bb8578373ffffffffffffffffffffffffffffffffffffffff1663150b7a02613a786124cc565b8786866040518563ffffffff1660e01b8152600401613a9a9493929190614e44565b602060405180830381600087803b158015613ab457600080fd5b505af1925050508015613ae557506040513d601f19601f82011682018060405250810190613ae29190614692565b60015b613b68573d8060008114613b15576040519150601f19603f3d011682016040523d82523d6000602084013e613b1a565b606091505b50600081511415613b60576040517f08c379a0000000000000000000000000000000000000000000000000000000008152600401613b5790614f95565b60405180910390fd5b805181602001fd5b63150b7a0260e01b7bffffffffffffffffffffffffffffffffffffffffffffffffffffffff1916817bffffffffffffffffffffffffffffffffffffffffffffffffffffffff191614915050613bbd565b600190505b949350505050565b600081600001805490509050919050565b600080836001016000848152602001908152602001600020541415905092915050565b60007f80ac58cd000000000000000000000000000000000000000000000000000000007bffffffffffffffffffffffffffffffffffffffffffffffffffffffff1916827bffffffffffffffffffffffffffffffffffffffffffffffffffffffff19161480613cc457507f5b5e139f000000000000000000000000000000000000000000000000000000007bffffffffffffffffffffffffffffffffffffffffffffffffffffffff1916827bffffffffffffffffffffffffffffffffffffffffffffffffffffffff1916145b80613cd45750613cd382613fe4565b5b9050919050565b6001816000016000828254019250508190555050565b6000613cfd838361404e565b9050600d60008473ffffffffffffffffffffffffffffffffffffffff1673ffffffffffffffffffffffffffffffffffffffff16815260200190815260200160002080549050811015613eb857600d60008473ffffffffffffffffffffffffffffffffffffffff1673ffffffffffffffffffffffffffffffffffffffff1681526020019081526020016000206001600d60008673ffffffffffffffffffffffffffffffffffffffff1673ffffffffffffffffffffffffffffffffffffffff16815260200190815260200160002080549050613dd791906154d8565b81548110613de857613de76157b9565b5b9060005260206000200154600d60008573ffffffffffffffffffffffffffffffffffffffff1673ffffffffffffffffffffffffffffffffffffffff1681526020019081526020016000208281548110613e4457613e436157b9565b5b9060005260206000200181905550600d60008473ffffffffffffffffffffffffffffffffffffffff1673ffffffffffffffffffffffffffffffffffffffff168152602001908152602001600020805480613ea157613ea061578a565b5b600190038181906000526020600020016000905590555b505050565b60008083600101600084815260200190815260200160002054905060008114613fc5576000600182613eef91906154d8565b9050600060018660000180549050613f0791906154d8565b9050818114613f76576000866000018281548110613f2857613f276157b9565b5b9060005260206000200154905080876000018481548110613f4c57613f4b6157b9565b5b90600052602060002001819055508387600101600083815260200190815260200160002081905550505b85600001805480613f8a57613f8961578a565b5b600190038181906000526020600020016000905590558560010160008681526020019081526020016000206000905560019350505050613fcb565b60009150505b92915050565b600080823b905060008111915050919050565b60007f01ffc9a7000000000000000000000000000000000000000000000000000000007bffffffffffffffffffffffffffffffffffffffffffffffffffffffff1916827bffffffffffffffffffffffffffffffffffffffffffffffffffffffff1916149050919050565b600080600090505b600d60008573ffffffffffffffffffffffffffffffffffffffff1673ffffffffffffffffffffffffffffffffffffffff1681526020019081526020016000208054905081101561411f5782600d60008673ffffffffffffffffffffffffffffffffffffffff1673ffffffffffffffffffffffffffffffffffffffff16815260200190815260200160002082815481106140f2576140f16157b9565b5b9060005260206000200154141561410c5780915050614172565b808061411790615683565b915050614056565b506064600d60008573ffffffffffffffffffffffffffffffffffffffff1673ffffffffffffffffffffffffffffffffffffffff1681526020019081526020016000208054905061416f91906153f7565b90505b92915050565b6040518060400160405280600073ffffffffffffffffffffffffffffffffffffffff16815260200160006bffffffffffffffffffffffff1681525090565b60006141c96141c4846152e5565b6152c0565b905080838252602082019050828560208602820111156141ec576141eb61581c565b5b60005b8581101561421c57816142028882614268565b8452602084019350602083019250506001810190506141ef565b5050509392505050565b600061423961423484615311565b6152c0565b90508281526020810184848401111561425557614254615821565b5b6142608482856155b4565b509392505050565b60008135905061427781615f1a565b92915050565b60008135905061428c81615f31565b92915050565b600082601f8301126142a7576142a6615817565b5b81356142b78482602086016141b6565b91505092915050565b6000813590506142cf81615f48565b92915050565b6000813590506142e481615f5f565b92915050565b6000813590506142f981615f76565b92915050565b60008151905061430e81615f76565b92915050565b600082601f83011261432957614328615817565b5b8135614339848260208601614226565b91505092915050565b60008135905061435181615f8d565b92915050565b60008135905061436681615fa4565b92915050565b6000602082840312156143825761438161582b565b5b600061439084828501614268565b91505092915050565b6000602082840312156143af576143ae61582b565b5b60006143bd8482850161427d565b91505092915050565b600080604083850312156143dd576143dc61582b565b5b60006143eb85828601614268565b92505060206143fc85828601614268565b9150509250929050565b60008060006060848603121561441f5761441e61582b565b5b600061442d86828701614268565b935050602061443e86828701614268565b925050604061444f86828701614342565b9150509250925092565b600080600080608085870312156144735761447261582b565b5b600061448187828801614268565b945050602061449287828801614268565b93505060406144a387828801614342565b925050606085013567ffffffffffffffff8111156144c4576144c3615826565b5b6144d087828801614314565b91505092959194509250565b600080604083850312156144f3576144f261582b565b5b600061450185828601614268565b925050602083013567ffffffffffffffff81111561452257614521615826565b5b61452e85828601614292565b9150509250929050565b6000806040838503121561454f5761454e61582b565b5b600061455d85828601614268565b925050602061456e858286016142c0565b9150509250929050565b6000806040838503121561458f5761458e61582b565b5b600061459d85828601614268565b92505060206145ae85828601614342565b9150509250929050565b6000602082840312156145ce576145cd61582b565b5b60006145dc848285016142d5565b91505092915050565b600080604083850312156145fc576145fb61582b565b5b600061460a858286016142d5565b925050602061461b85828601614268565b9150509250929050565b6000806040838503121561463c5761463b61582b565b5b600061464a858286016142d5565b925050602061465b85828601614342565b9150509250929050565b60006020828403121561467b5761467a61582b565b5b6000614689848285016142ea565b91505092915050565b6000602082840312156146a8576146a761582b565b5b60006146b6848285016142ff565b91505092915050565b6000602082840312156146d5576146d461582b565b5b60006146e384828501614342565b91505092915050565b6000806000606084860312156147055761470461582b565b5b600061471386828701614342565b93505060206147248682870161427d565b925050604061473586828701614357565b9150509250925092565b600080604083850312156147565761475561582b565b5b600061476485828601614342565b925050602061477585828601614342565b9150509250929050565b6000602082840312156147955761479461582b565b5b60006147a384828501614357565b91505092915050565b60006147b88383614d37565b60408301905092915050565b60006147d08383614d66565b60208301905092915050565b6147e58161551e565b82525050565b6147f48161551e565b82525050565b6148038161550c565b82525050565b600061481482615362565b61481e81856153a8565b935061482983615342565b8060005b8381101561485a57815161484188826147ac565b975061484c8361538e565b92505060018101905061482d565b5085935050505092915050565b60006148728261536d565b61487c81856153b9565b935061488783615352565b8060005b838110156148b857815161489f88826147c4565b97506148aa8361539b565b92505060018101905061488b565b5085935050505092915050565b6148ce81615530565b82525050565b6148dd8161553c565b82525050565b60006148ee82615378565b6148f881856153ca565b93506149088185602086016155c3565b61491181615830565b840191505092915050565b600061492782615383565b61493181856153db565b93506149418185602086016155c3565b61494a81615830565b840191505092915050565b600061496082615383565b61496a81856153ec565b935061497a8185602086016155c3565b80840191505092915050565b60006149936020836153db565b915061499e82615841565b602082019050919050565b60006149b66025836153db565b91506149c18261586a565b604082019050919050565b60006149d96032836153db565b91506149e4826158b9565b604082019050919050565b60006149fc6026836153db565b9150614a0782615908565b604082019050919050565b6000614a1f601c836153db565b9150614a2a82615957565b602082019050919050565b6000614a426016836153db565b9150614a4d82615980565b602082019050919050565b6000614a65602b836153db565b9150614a70826159a9565b604082019050919050565b6000614a886024836153db565b9150614a93826159f8565b604082019050919050565b6000614aab6019836153db565b9150614ab682615a47565b602082019050919050565b6000614ace602c836153db565b9150614ad982615a70565b604082019050919050565b6000614af16028836153db565b9150614afc82615abf565b604082019050919050565b6000614b146020836153db565b9150614b1f82615b0e565b602082019050919050565b6000614b376038836153db565b9150614b4282615b37565b604082019050919050565b6000614b5a602a836153db565b9150614b6582615b86565b604082019050919050565b6000614b7d6029836153db565b9150614b8882615bd5565b604082019050919050565b6000614ba06020836153db565b9150614bab82615c24565b602082019050919050565b6000614bc36029836153db565b9150614bce82615c4d565b604082019050919050565b6000614be6602c836153db565b9150614bf182615c9c565b604082019050919050565b6000614c096020836153db565b9150614c1482615ceb565b602082019050919050565b6000614c2c6029836153db565b9150614c3782615d14565b604082019050919050565b6000614c4f602f836153db565b9150614c5a82615d63565b604082019050919050565b6000614c726021836153db565b9150614c7d82615db2565b604082019050919050565b6000614c956031836153db565b9150614ca082615e01565b604082019050919050565b6000614cb86017836153ec565b9150614cc382615e50565b601782019050919050565b6000614cdb601b836153db565b9150614ce682615e79565b602082019050919050565b6000614cfe6011836153ec565b9150614d0982615ea2565b601182019050919050565b6000614d21602f836153db565b9150614d2c82615ecb565b604082019050919050565b604082016000820151614d4d60008501826147dc565b506020820151614d606020850182614d84565b50505050565b614d6f81615592565b82525050565b614d7e81615592565b82525050565b614d8d8161559c565b82525050565b614d9c8161559c565b82525050565b6000614dae8285614955565b9150614dba8284614955565b91508190509392505050565b6000614dd182614cab565b9150614ddd8285614955565b9150614de882614cf1565b9150614df48284614955565b91508190509392505050565b6000602082019050614e1560008301846147fa565b92915050565b6000604082019050614e3060008301856147eb565b614e3d6020830184614d93565b9392505050565b6000608082019050614e5960008301876147fa565b614e6660208301866147fa565b614e736040830185614d75565b8181036060830152614e8581846148e3565b905095945050505050565b6000604082019050614ea560008301856147fa565b614eb26020830184614d75565b9392505050565b60006020820190508181036000830152614ed38184614809565b905092915050565b60006020820190508181036000830152614ef58184614867565b905092915050565b6000602082019050614f1260008301846148c5565b92915050565b6000602082019050614f2d60008301846148d4565b92915050565b60006020820190508181036000830152614f4d818461491c565b905092915050565b60006020820190508181036000830152614f6e81614986565b9050919050565b60006020820190508181036000830152614f8e816149a9565b9050919050565b60006020820190508181036000830152614fae816149cc565b9050919050565b60006020820190508181036000830152614fce816149ef565b9050919050565b60006020820190508181036000830152614fee81614a12565b9050919050565b6000602082019050818103600083015261500e81614a35565b9050919050565b6000602082019050818103600083015261502e81614a58565b9050919050565b6000602082019050818103600083015261504e81614a7b565b9050919050565b6000602082019050818103600083015261506e81614a9e565b9050919050565b6000602082019050818103600083015261508e81614ac1565b9050919050565b600060208201905081810360008301526150ae81614ae4565b9050919050565b600060208201905081810360008301526150ce81614b07565b9050919050565b600060208201905081810360008301526150ee81614b2a565b9050919050565b6000602082019050818103600083015261510e81614b4d565b9050919050565b6000602082019050818103600083015261512e81614b70565b9050919050565b6000602082019050818103600083015261514e81614b93565b9050919050565b6000602082019050818103600083015261516e81614bb6565b9050919050565b6000602082019050818103600083015261518e81614bd9565b9050919050565b600060208201905081810360008301526151ae81614bfc565b9050919050565b600060208201905081810360008301526151ce81614c1f565b9050919050565b600060208201905081810360008301526151ee81614c42565b9050919050565b6000602082019050818103600083015261520e81614c65565b9050919050565b6000602082019050818103600083015261522e81614c88565b9050919050565b6000602082019050818103600083015261524e81614cce565b9050919050565b6000602082019050818103600083015261526e81614d14565b9050919050565b600060208201905061528a6000830184614d75565b92915050565b60006040820190506152a56000830185614d75565b81810360208301526152b78184614809565b90509392505050565b60006152ca6152db565b90506152d68282615652565b919050565b6000604051905090565b600067ffffffffffffffff821115615300576152ff6157e8565b5b602082029050602081019050919050565b600067ffffffffffffffff82111561532c5761532b6157e8565b5b61533582615830565b9050602081019050919050565b6000819050602082019050919050565b6000819050602082019050919050565b600081519050919050565b600081519050919050565b600081519050919050565b600081519050919050565b6000602082019050919050565b6000602082019050919050565b600082825260208201905092915050565b600082825260208201905092915050565b600082825260208201905092915050565b600082825260208201905092915050565b600081905092915050565b600061540282615592565b915061540d83615592565b9250827fffffffffffffffffffffffffffffffffffffffffffffffffffffffffffffffff03821115615442576154416156fd565b5b828201905092915050565b600061545882615592565b915061546383615592565b9250826154735761547261572c565b5b828204905092915050565b600061548982615592565b915061549483615592565b9250817fffffffffffffffffffffffffffffffffffffffffffffffffffffffffffffffff04831182151516156154cd576154cc6156fd565b5b828202905092915050565b60006154e382615592565b91506154ee83615592565b925082821015615501576155006156fd565b5b828203905092915050565b600061551782615572565b9050919050565b600061552982615572565b9050919050565b60008115159050919050565b6000819050919050565b60007fffffffff0000000000000000000000000000000000000000000000000000000082169050919050565b600073ffffffffffffffffffffffffffffffffffffffff82169050919050565b6000819050919050565b60006bffffffffffffffffffffffff82169050919050565b82818337600083830152505050565b60005b838110156155e15780820151818401526020810190506155c6565b838111156155f0576000848401525b50505050565b600061560182615592565b91506000821415615615576156146156fd565b5b600182039050919050565b6000600282049050600182168061563857607f821691505b6020821081141561564c5761564b61575b565b5b50919050565b61565b82615830565b810181811067ffffffffffffffff8211171561567a576156796157e8565b5b80604052505050565b600061568e82615592565b91507fffffffffffffffffffffffffffffffffffffffffffffffffffffffffffffffff8214156156c1576156c06156fd565b5b600182019050919050565b60006156d782615592565b91506156e283615592565b9250826156f2576156f161572c565b5b828206905092915050565b7f4e487b7100000000000000000000000000000000000000000000000000000000600052601160045260246000fd5b7f4e487b7100000000000000000000000000000000000000000000000000000000600052601260045260246000fd5b7f4e487b7100000000000000000000000000000000000000000000000000000000600052602260045260246000fd5b7f4e487b7100000000000000000000000000000000000000000000000000000000600052603160045260246000fd5b7f4e487b7100000000000000000000000000000000000000000000000000000000600052603260045260246000fd5b7f4e487b7100000000000000000000000000000000000000000000000000000000600052604160045260246000fd5b600080fd5b600080fd5b600080fd5b600080fd5b600080fd5b6000601f19601f8301169050919050565b7f537472696e67733a20686578206c656e67746820696e73756666696369656e74600082015250565b7f54686973205361746f73686920686173206265656e20616c7265616479206d6960008201527f6e74656421000000000000000000000000000000000000000000000000000000602082015250565b7f4552433732313a207472616e7366657220746f206e6f6e20455243373231526560008201527f63656976657220696d706c656d656e7465720000000000000000000000000000602082015250565b7f4f776e61626c653a206e6577206f776e657220697320746865207a65726f206160008201527f6464726573730000000000000000000000000000000000000000000000000000602082015250565b7f4552433732313a20746f6b656e20616c7265616479206d696e74656400000000600082015250565b7f4e6f7420656e6f7567682066756e64732073656e742100000000000000000000600082015250565b7f5370656369616c20636f6c6c656374696f6e2061646472657373206973206e6f60008201527f7420666f722073616c6521000000000000000000000000000000000000000000602082015250565b7f4552433732313a207472616e7366657220746f20746865207a65726f2061646460008201527f7265737300000000000000000000000000000000000000000000000000000000602082015250565b7f4552433732313a20617070726f766520746f2063616c6c657200000000000000600082015250565b7f4552433732313a206f70657261746f7220717565727920666f72206e6f6e657860008201527f697374656e7420746f6b656e0000000000000000000000000000000000000000602082015250565b7f457863657074696f6e3a206d7573742068617665206d696e74657220726f6c6560008201527f20746f206d696e74000000000000000000000000000000000000000000000000602082015250565b7f526f79616c74792076616c75652073686f756c6420626520706f736974697665600082015250565b7f4552433732313a20617070726f76652063616c6c6572206973206e6f74206f7760008201527f6e6572206e6f7220617070726f76656420666f7220616c6c0000000000000000602082015250565b7f4552433732313a2062616c616e636520717565727920666f7220746865207a6560008201527f726f206164647265737300000000000000000000000000000000000000000000602082015250565b7f4552433732313a206f776e657220717565727920666f72206e6f6e657869737460008201527f656e7420746f6b656e0000000000000000000000000000000000000000000000602082015250565b7f4552433732313a206d696e7420746f20746865207a65726f2061646472657373600082015250565b7f5370656369616c20636f6c6c656374696f6e206164647265737320617265206260008201527f656c6f7720464646460000000000000000000000000000000000000000000000602082015250565b7f4552433732313a20617070726f76656420717565727920666f72206e6f6e657860008201527f697374656e7420746f6b656e0000000000000000000000000000000000000000602082015250565b7f4f776e61626c653a2063616c6c6572206973206e6f7420746865206f776e6572600082015250565b7f4552433732313a207472616e73666572206f6620746f6b656e2074686174206960008201527f73206e6f74206f776e0000000000000000000000000000000000000000000000602082015250565b7f4552433732314d657461646174613a2055524920717565727920666f72206e6f60008201527f6e6578697374656e7420746f6b656e0000000000000000000000000000000000602082015250565b7f4552433732313a20617070726f76616c20746f2063757272656e74206f776e6560008201527f7200000000000000000000000000000000000000000000000000000000000000602082015250565b7f4552433732313a207472616e736665722063616c6c6572206973206e6f74206f60008201527f776e6572206e6f7220617070726f766564000000000000000000000000000000602082015250565b7f416363657373436f6e74726f6c3a206163636f756e7420000000000000000000600082015250565b7f526563697069656e742073686f756c642062652070726573656e740000000000600082015250565b7f206973206d697373696e6720726f6c6520000000000000000000000000000000600082015250565b7f416363657373436f6e74726f6c3a2063616e206f6e6c792072656e6f756e636560008201527f20726f6c657320666f722073656c660000000000000000000000000000000000602082015250565b615f238161550c565b8114615f2e57600080fd5b50565b615f3a8161551e565b8114615f4557600080fd5b50565b615f5181615530565b8114615f5c57600080fd5b50565b615f688161553c565b8114615f7357600080fd5b50565b615f7f81615546565b8114615f8a57600080fd5b50565b615f9681615592565b8114615fa157600080fd5b50565b615fad8161559c565b8114615fb857600080fd5b5056fea26469706673582212206f5237d24d01ebb785995e3ff92659b3db0c9477f3cf96105e5147cad393aa9e64736f6c63430008060033",
  "immutableReferences": {},
  "source": "//SPDX-License-Identifier: MIT\npragma solidity ^0.8.0;\n\nimport \"@openzeppelin/contracts/token/ERC721/ERC721.sol\";\nimport \"@openzeppelin/contracts/access/Ownable.sol\";\nimport \"@openzeppelin/contracts/access/AccessControlEnumerable.sol\";\nimport \"@openzeppelin/contracts/utils/Counters.sol\";\nimport \"./rarible/royalties/contracts/impl/RoyaltiesV2Impl.sol\";\nimport \"./rarible/royalties/contracts/LibPart.sol\";\nimport \"./rarible/royalties/contracts/LibRoyaltiesV2.sol\";\n\ncontract Satoshi is ERC721, AccessControlEnumerable, Ownable, RoyaltiesV2Impl {\n    using Counters for Counters.Counter;\n    Counters.Counter private _tokenIdTracker;\n\n    //Adds support for OpenSea\n    bytes4 private constant _INTERFACE_ID_ERC2981 = 0x2a55205a;\n\n    //Roles of monter and burner\n    bytes32 public constant MINTER_ROLE = keccak256(\"MINTER_ROLE\");\n\n    //Mapping from NFT to struct\n    mapping(address => bool) private isMinted;\n\n    //Mapping from NFT to struct\n    mapping(uint => address) private _dna;\n\n    // Mapping from owner address to token ID. It is used to quickly get all NFTs on an address\n    mapping(address => uint256[]) private _tokensByOwner;\n\n    //Royaties address and amntou\n    address payable private _royaltiesAddress;\n    uint96 private _royaltiesBasicPoints;\n\n    //Used by _beforeTokenTransfer to catch the after minting\n    address private DNAToMint;\n\n    uint private ownAddressPrice=       5000000000000000000; //5 matic\n    uint private otherAddressPrice=    25000000000000000000; //25 matic\n\n    uint private specialAddressTop= 65535; //Below this addr all NFTs are special (only owner alowed)\n\n    constructor() ERC721(\"My Own Satoshi\", \"MOS\") {\n        _setupRole(DEFAULT_ADMIN_ROLE, _msgSender());\n\n        _setupRole(MINTER_ROLE, _msgSender());\n\n        //Royaties address and amntou\n        _royaltiesAddress=payable(address(this)); //Contract creator by default\n        _royaltiesBasicPoints=500; //5% default\n    }\n\n    receive() external payable {}\n\n    // Cannot buy special addresses\n    function purchaseSatoshi(address toBuy) external payable {\n        require(!isMinted[toBuy], \"This Satoshi has been already minted!\");\n        require(uint256(uint160(toBuy))>specialAddressTop, \"Special collection address is not for sale!\");\n        require(toBuy==msg.sender? msg.value>=ownAddressPrice: msg.value>=otherAddressPrice , \"Not enough funds sent!\");\n\n        //MINT EL BICHO!!!\n        mint(msg.sender, toBuy);\n    }\n\n    function mintCollection(address toBuy)  public onlyOwner {\n        require(!isMinted[toBuy], \"This Satoshi has been already minted!\");\n        require(uint256(uint160(toBuy))<=specialAddressTop, \"Special collection address are below FFFF\");\n\n        //MINT EL BICHO!!!\n        mint(msg.sender, toBuy);\n    }\n\n\n    //Ojo, tenemos que meter aqu el escrow!!\n    function withdraw(uint amount) external {\n        payable(msg.sender).transfer(amount);\n    }\n\n    function alreadyMinted(address addr) public view returns (bool) {\n        return isMinted[addr];\n    }\n\n    function tokensByOwner(address addr) public view returns (uint[] memory) {\n        return _tokensByOwner[addr];\n    }\n\n    function dnaOfId(uint id) public view returns (address) {\n        return _dna[id];\n    }\n\n    function mint(address _to, address data) public {\n        require(hasRole(MINTER_ROLE, _msgSender()), \"Exception: must have minter role to mint\");\n        require(!isMinted[data], \"This Satoshi has been already minted!\");\n        \n        //Stores the struct to assign when mint os ok\n        DNAToMint=data;\n\n        super._mint(_to, _tokenIdTracker.current());        \n    }\n\n    function bulkMint(address _to, address[] memory data) public {\n        require(hasRole(MINTER_ROLE, _msgSender()), \"Exception: must have minter role to mint\");\n        \n        for (uint i=0; i<data.length; i++) {        \n            mint(_to, data[i]);\n        }\n    }\n\n    //Set prices    \n\n    function setOwnAddressPrice(uint value) public onlyOwner {\n        ownAddressPrice=value;\n    }\n\n    function setOtherAddressPrice(uint value) public onlyOwner {\n        otherAddressPrice=value;\n    }    \n\n    function setSpecialAddressTop(uint value) public onlyOwner {\n        specialAddressTop=value;\n    }\n\n    //Royalties Address\n    function setRoyaltiesAddress(address payable rAddress) public onlyOwner {\n        _royaltiesAddress=rAddress;\n    }\n\n    //Royalties basics points (100 => 1%)\n    function setRoyaltiesBasicPoints(uint96 rBasicPoints) public onlyOwner {\n        _royaltiesBasicPoints=rBasicPoints;\n    }\n\n    function _beforeTokenTransfer(address from, address to, uint256 tokenId) internal virtual override(ERC721) {\n        if(from==address(0)) {\n\n            //Stores the DNA for this token id\n            _dna[tokenId]=DNAToMint;\n            //Set the address as already minted\n            isMinted[DNAToMint]=true;\n\n            //Minting ok, creates struct of stats                        \n            _tokenIdTracker.increment();\n\n            //When mint a new NFT sets the royalties address\n            setRoyalties(tokenId, _royaltiesAddress, _royaltiesBasicPoints);\n\n            //Updates the _tokensByOwner mapping            \n            _tokensByOwner[to].push(tokenId);\n        } else if(to==address(0)) {\n            //Burning\n\n            //Updates the _tokensByOwner mapping\n            deleteTokenId(from, tokenId);\n        } else {\n            //Normal transfer\n\n            //Updates the _tokensByOwner mapping\n            _tokensByOwner[to].push(tokenId);\n            deleteTokenId(from, tokenId);\n        }\n        \n    }\n\n    function _baseURI() internal view virtual override returns (string memory) {\n        return \"http://nft.myownsatoshi.com/\";\n    }\n\n    function setRoyalties(uint256 _tokenId, address payable _royaltiesReceipientAddress, uint96 _percentageBasisPoints) public onlyOwner {\n        LibPart.Part[] memory _royalties = new LibPart.Part[](1);\n        _royalties[0].value = _percentageBasisPoints;\n        _royalties[0].account = _royaltiesReceipientAddress;\n        _saveRoyalties(_tokenId, _royalties);\n    }\n\n    function royaltyInfo(uint256 _tokenId, uint256 _salePrice ) external view returns ( address receiver, uint256 royaltyAmount) {\n        LibPart.Part[] memory _royalties = royalties[_tokenId];\n        if(_royalties.length > 0) {\n            return(_royalties[0].account, (_salePrice * _royalties[0].value)/10000);\n        }\n        return (address(0), 0);\n    }\n\n    function supportsInterface(bytes4 interfaceId) public view virtual override(ERC721, AccessControlEnumerable) returns (bool) {\n        if (interfaceId == LibRoyaltiesV2._INTERFACE_ID_ROYALTIES) {\n            return true;\n        }\n\n        if(interfaceId == _INTERFACE_ID_ERC2981) {\n            return true;\n        }\n\n        return super.supportsInterface(interfaceId);\n    }\n\n    //************************************************************\n    // ARRAY functions \n    //************************************************************\n    function positionOf(address powner, uint256 tokenId) internal view returns (uint) {\n        for(uint i=0; i<_tokensByOwner[powner].length; i++) {\n            if(_tokensByOwner[powner][i]==tokenId)\n                return i;\n        }\n        return _tokensByOwner[powner].length+100;\n    }\n\n    function deleteTokenId(address powner, uint256 tokenId) internal {\n        //Updates the _tokensByOwner mapping\n        uint pos=positionOf(powner, tokenId);\n        if(pos<_tokensByOwner[powner].length) {\n            _tokensByOwner[powner][pos]= _tokensByOwner[powner][ _tokensByOwner[powner].length-1];\n            _tokensByOwner[powner].pop();\n        }\n    }\n\n}",
  "sourcePath": "/home/javi/Satoshis/contracts/Satoshi.sol",
  "compiler": {
    "name": "solc",
    "version": "0.8.6+commit.11564f7e.Emscripten.clang"
  },
  "schemaVersion": "3.4.3",
  "updatedAt": "2022-01-02T14:22:37.469Z",
  "devdoc": {
    "kind": "dev",
    "methods": {
      "approve(address,uint256)": {
        "details": "See {IERC721-approve}."
      },
      "balanceOf(address)": {
        "details": "See {IERC721-balanceOf}."
      },
      "getApproved(uint256)": {
        "details": "See {IERC721-getApproved}."
      },
      "getRoleAdmin(bytes32)": {
        "details": "Returns the admin role that controls `role`. See {grantRole} and {revokeRole}. To change a role's admin, use {_setRoleAdmin}."
      },
      "getRoleMember(bytes32,uint256)": {
        "details": "Returns one of the accounts that have `role`. `index` must be a value between 0 and {getRoleMemberCount}, non-inclusive. Role bearers are not sorted in any particular way, and their ordering may change at any point. WARNING: When using {getRoleMember} and {getRoleMemberCount}, make sure you perform all queries on the same block. See the following https://forum.openzeppelin.com/t/iterating-over-elements-on-enumerableset-in-openzeppelin-contracts/2296[forum post] for more information."
      },
      "getRoleMemberCount(bytes32)": {
        "details": "Returns the number of accounts that have `role`. Can be used together with {getRoleMember} to enumerate all bearers of a role."
      },
      "grantRole(bytes32,address)": {
        "details": "Grants `role` to `account`. If `account` had not been already granted `role`, emits a {RoleGranted} event. Requirements: - the caller must have ``role``'s admin role."
      },
      "hasRole(bytes32,address)": {
        "details": "Returns `true` if `account` has been granted `role`."
      },
      "isApprovedForAll(address,address)": {
        "details": "See {IERC721-isApprovedForAll}."
      },
      "name()": {
        "details": "See {IERC721Metadata-name}."
      },
      "owner()": {
        "details": "Returns the address of the current owner."
      },
      "ownerOf(uint256)": {
        "details": "See {IERC721-ownerOf}."
      },
      "renounceOwnership()": {
        "details": "Leaves the contract without owner. It will not be possible to call `onlyOwner` functions anymore. Can only be called by the current owner. NOTE: Renouncing ownership will leave the contract without an owner, thereby removing any functionality that is only available to the owner."
      },
      "renounceRole(bytes32,address)": {
        "details": "Revokes `role` from the calling account. Roles are often managed via {grantRole} and {revokeRole}: this function's purpose is to provide a mechanism for accounts to lose their privileges if they are compromised (such as when a trusted device is misplaced). If the calling account had been revoked `role`, emits a {RoleRevoked} event. Requirements: - the caller must be `account`."
      },
      "revokeRole(bytes32,address)": {
        "details": "Revokes `role` from `account`. If `account` had been granted `role`, emits a {RoleRevoked} event. Requirements: - the caller must have ``role``'s admin role."
      },
      "safeTransferFrom(address,address,uint256)": {
        "details": "See {IERC721-safeTransferFrom}."
      },
      "safeTransferFrom(address,address,uint256,bytes)": {
        "details": "See {IERC721-safeTransferFrom}."
      },
      "setApprovalForAll(address,bool)": {
        "details": "See {IERC721-setApprovalForAll}."
      },
      "symbol()": {
        "details": "See {IERC721Metadata-symbol}."
      },
      "tokenURI(uint256)": {
        "details": "See {IERC721Metadata-tokenURI}."
      },
      "transferFrom(address,address,uint256)": {
        "details": "See {IERC721-transferFrom}."
      },
      "transferOwnership(address)": {
        "details": "Transfers ownership of the contract to a new account (`newOwner`). Can only be called by the current owner."
      }
    },
    "version": 1
  },
  "userdoc": {
    "kind": "user",
    "methods": {},
    "version": 1
  }
}